:020000040800F2
:100000000010002011030008130300081303000868
:100010001303000813030008130300081303000868
:10002000130300081303000813030008710F0008EE
:10003000130300081303000813030008611F0008DE
:100040001303000813030008130300081303000838
:1000500013030008130300081113000861130008BC
:10006000C113000821140008811400083119000888
:1000700061190008A1190008E1190008211A0008F7
:10008000511A0008911A000813030008130300080E
:10009000130300081303000813030008E114000809
:1000A00013030008130300081303000813030008D8
:1000B00013030008130300081303000813030008C8
:1000C00013030008130300081303000813030008B8
:1000D00013030008130300081303000813030008A8
:1000E0000116000813030008130300081303000897
:1000F000130300081303000813030008D11A0008B3
:100100001303000813030008130300081303000877
:10011000512100081303000813030008130300080B
:10012000111B0008411B0008811B0008C11B0008AF
:10013000011C000813030008130300081303000840
:100140001303000813030008130300081303000837
:10015000311C0008711C0008B11C000813030008C2
:100160001303000813030008130300081303000817
:100170001303000813030008130300081303000807
:1001800013030008130300081303000813030008F7
:1001900013030008130300081303000813030008E7
:1001A00013030008130300081303000813030008D7
:1001B00013030008130300081303000813030008C7
:1001C00013030008130300081303000813030008B7
:1001D00013030008130300081303000813030008A7
:1001E000B12D0008112F000821300008E13500086A
:1001F00072B6394880F30888384880F3098838484F
:100200004EF60851CEF20001086040F20000CCF238
:1002100000004EF63471CEF200010860BFF34F8F3C
:10022000BFF36F8F40F20000C0F2F0004EF688512D
:10023000CEF200010860BFF34F8FBFF36F8F4FF016
:100240000000E1EE100A4EF63C71CEF200010860AB
:10025000062080F31488BFF36F8F00F019F902F0C5
:100260000FF94FF055301F491B4A91423CBF41F8EE
:10027000040BFAE71C49194A91423CBF41F8040BB0
:10028000FAE71A491A4A1B4B9A423EBF51F8040B2F
:1002900042F8040BF8E700201749184A91423CBF86
:1002A00041F8040BFAE700F00BF900F0F9F8144CF0
:1002B000144DAC4203DA54F8041B8847F9E703F005
:1002C00067F9114C114DAC4203DA54F8041B88470E
:1002D000F9E700F0EDB80000001000200016002043
:1002E000000000080000002000100020043B00086F
:1002F000001600203416002038160020BCBB002059
:10030000E0010008F0010008F0010008F001000819
:100310006EE700F000F8FEE72DE9F04F2DED108AB2
:10032000C1F80CD0C3689D46BDEC108ABDE8F08FC3
:1003300000F0C6F9002383F311882846A047002067
:1003400000F0D6FC00F0ACF900F092FB00F0B8F938
:1003500000DFFEE7844641EA000313F003036DD19A
:10036000403A41D351F8043B40F8043B51F8043B78
:1003700040F8043B51F8043B40F8043B51F8043B7F
:1003800040F8043B51F8043B40F8043B51F8043B6F
:1003900040F8043B51F8043B40F8043B51F8043B5F
:1003A00040F8043B51F8043B40F8043B51F8043B4F
:1003B00040F8043B51F8043B40F8043B51F8043B3F
:1003C00040F8043B51F8043B40F8043B51F8043B2F
:1003D00040F8043B51F8043B40F8043B51F8043B1F
:1003E00040F8043B403ABDD2303211D351F8043BBF
:1003F00040F8043B51F8043B40F8043B51F8043BFF
:1004000040F8043B51F8043B40F8043B103AEDD26D
:100410000C3205D351F8043B40F8043B043AF9D2BE
:10042000043208D0D2071CBF11F8013B00F8013B91
:1004300001D30B8803806046704700BF082A13D39E
:100440008B078DD010F003038AD0C3F10403D21AB6
:10045000DB071CBF11F8013B00F8013B80D331F8EA
:10046000023B20F8023B7BE7043AD9D3013A11F86A
:10047000013B00F8013BF9D20B7803704B784370D5
:100480008B78837060467047000000000000000019
:10049000704700BF000000000000000000000000E6
:1004A000704700BF000000000000000000000000D6
:1004B000FEE700BF00000000000000000000000098
:1004C000F0B4144E144D154C154B164906F1700C32
:1004D00000279C4211D904391A4651F8040F42F8FA
:1004E000040B9442F9D8DA43144424F0030404348E
:1004F00023449D4203D943F8047B9D42FBD86645C3
:1005000005D0D6E90413D6E906451036E1E7F0BC7C
:10051000704700BF84360008BCBB0020BCBB002075
:10052000BCBB0020383B00080000000000000000B9
:10053000FEE700BF00000000000000000000000017
:10054000F8B51C4C1C4F1D4E002500F0A1F900F021
:100550004FF9C4E90C5500F08BFC00F0B1FC00F041
:10056000F7FC04F138008022154900F0C1FA154B60
:1005700001220277D968144AA0614FF6FF000140BA
:100580000A43DA60FA6842F08072FA60326810203A
:1005900042F0010220213260D87783F8221000F067
:1005A0006FF885F3118862B60848BDE8F84000F09E
:1005B000FFBA00BF481E0020F0ED00E0001000E090
:1005C0009C37000800ED00E00003FA05243700081E
:1005D00008B572B6034B0449D862D12202F028FD57
:1005E000FEE700BF481E002004370008000000009E
:1005F0002DE9F843164D00F0DBF8AA69D37F0BB163
:10060000013BD37700F0D4F8124FAB6AEC690133A9
:10061000BC42AB6219D0A668013EA660AEB94FF0ED
:1006200020092368D4F80C80E6605F60EB6100F07D
:1006300077F886F311882069C04789F3118800F0A4
:1006400057F8EC69A368002BEBD0BDE8F88300BF36
:10065000481E0020641E0020000000000000000072
:10066000044B1A6B0AB95B6B13B10348FFF7B0BFB9
:10067000704700BF481E00204437000800000000FB
:10068000044B1A6B0AB95B6B13B10348FFF7A0BFA9
:10069000704700BF481E00204C37000800000000D3
:1006A00010B5054C236B0BB9636B13B10348FFF70F
:1006B0008FFF0123636310BD481E002064370008CC
:1006C00010B5074C236B2BB9636B002B02DD0023A5
:1006D000636310BD0348FFF77BFF0023636310BD16
:1006E000481E0020743700080000000000000000D1
:1006F00010B5064C236B002B01DD636B13B104486E
:10070000FFF766FF0123636310BD00BF481E002092
:100710006C3700080000000000000000000000002E
:1007200010B5084C236B002B05DD636B002B02DD3D
:100730000023636310BD0448FFF74AFF002363638F
:1007400010BD00BF481E00207C37000800000000DC
:1007500010B5202383F31188074C236B002B01DB9A
:10076000626B1AB10548FFF733FF236B0133236334
:10077000002383F3118810BD481E00205437000861
:1007800010B5202383F31188074C236B002B01DD68
:10079000626B1AB10548FFF71BFF236B013B236314
:1007A000002383F3118810BD481E00205C37000829
:1007B000054B1A6B002A03DB5B6B002B00DD7047D7
:1007C0000248FFF705BF00BF481E0020843700081D
:1007D000044B1A6B1AB95B6B002B00DD70470248A3
:1007E000FFF7F6BE481E00208C370008000000000E
:1007F000054B4FF0FF30002103F11C025862996253
:10080000C3E90722704700BF481E00200000000017
:10081000F8B5054616461F460C46FFF7C9FF0C48BB
:100820002F61C369EE609A68944204D91B68A41AC8
:100830009A68A242FAD35A68C5E9003215605D6031
:10084000AC6099684FF0FF32091B99604262F8BDB5
:10085000481E002000000000000000000000000012
:1008600038B50446FFF7A4FF2368A5689A68616855
:1008700005482A449A600B60256800224FF0FF3338
:100880006960E260436238BD481E0020000000003D
:10089000034B0022C3E90033C3E904339A60704775
:1008A000481E0020000000000000000000000000C2
:1008B00010B50446FFF77CFF0022A168064B2277A3
:1008C0001B689A688A42FBD25A682046C4E9003203
:1008D00014605C6010BD00BF481E002000000000D6
:1008E00038B50446202383F31188FFF701FF237FE7
:1008F000072B10D8DFE803F0150F0F1B0A040F0AAF
:10090000256AFFF755FFAB680133AB60D4E90023DC
:100910001A60226853604FF0FF3323622046FFF7CE
:10092000C7FFFFF7FDFE002383F3118838BD236A5C
:1009300000221A604FF0FF3323622046FFF7B8FF12
:10094000EFE700BF00000000000000000000000012
:1009500070B50A4CA5690646FFF73AFF23682E7763
:100960001422EA771A682260012654601E7729460D
:10097000A3611846BDE87040FFF7CEBC481E0020BA
:1009800070B50D4686B00646FFF722FF6B1C14D0EB
:100990000E4C0F4AA369294601A8FFF739FF3046DC
:1009A000FFF7D6FFFFF704FF049B13B101A8FFF781
:1009B00057FFA369186A06B070BD044C3046FFF7B4
:1009C000C7FFA369186A06B070BD00BF481E0020AB
:1009D000E108000800000000000000000000000026
:1009E000F8B5144E0546B4690F46FFF7F1FEA3684B
:1009F000AA682F629A4217D9FFF7DAFE0023A1688E
:100A0000237733461B689A688A42FBD25A68626031
:100A10000120236014605C60287721462846B56178
:100A2000BDE8F840FFF778BC2846BDE8F840FFF77E
:100A30003FBF00BF481E0020000000000000000073
:100A4000084A93691168DA7F88689B6822B99842DE
:100A500034BF002001207047984294BF002001203D
:100A6000704700BF481E002000000000000000008A
:100A700070B51B4D2B68AC691A682A605560DE7F23
:100A8000AB6101221A77AEB9FFF792FEA168267713
:100A90002B461B689A688A42FBD25A68626014210E
:100AA000236014605C60E177A8692146BDE870406E
:100AB000FFF732BCFFF77CFE0023A16823772B46AB
:100AC0001B689A688A42FBD85A68A869C4E9003250
:100AD000214614605C60BDE87040FFF71DBC00BF9C
:100AE000481E002000000000000000000000000080
:100AF000F0B40B4C0B4F6569826382600026816104
:100B000000F1280200F1240145610461C761C0E9D8
:100B10000C6628616061C0E90912C262F0BC7047CE
:100B2000481E002002000114000000000000000028
:100B300070B50446FFF73CFED4E90416A3682568A7
:100B4000E06843F86C1C022103F82C1C142103F804
:100B5000291C012103F82A1C124A43F8686C002161
:100B600003F82B1C546943F8400C43F8100C43F86D
:100B7000305CA3F1AC000C4D43F83C0C43F84C5CEA
:100B800043E90611A3F14800A3F12001A3F12405D4
:100B900043E90E242061506143E9095143F81C1CCC
:100BA00070BD00BF481E0020310300080000000097
:100BB00010B52023044683F31188FFF771FD20460A
:100BC000FFF7B6FF00210446FFF70AFFFFF778FDA5
:100BD000002383F31188204610BD00BF00000000F1
:100BE0002DE9F843994604460D469046202383F3A9
:100BF0001188483D2C44184E184FFFF751FD089BB3
:100C0000716944F8203CA4F16402154BE260E36191
:100C100004F1240204F128030025124844F8249C1E
:100C2000C4E90461C4F8088044F8047CA061C4F8F5
:100C30003880C4E90C5520460C61C4E90923E362FD
:100C400029467461FFF7CCFEFFF73AFD85F3118862
:100C50002046BDE8F88300BF481E0020310300088D
:100C6000020001149437000800000000000000009A
:100C700010B52023044683F31188FFF711FDA37FED
:100C8000013BA377E36903F0FF130F2B01BFD4E906
:100C900004231A6122695361FFF712FD002383F3D5
:100CA000118810BD000000000000000000000000DE
:100CB00038B50E4B9C69636A206204F12405AB428F
:100CC00007D01A6862621846FFF7F2FD636AAB420A
:100CD000F7D1A37F23B9D4E904231A6122695361B0
:100CE0000F20BDE83840FFF733BE00BF481E00208C
:100CF00010B52023044683F31188FFF7D1FC20466A
:100D0000BDE81040FFF7D4BF000000000000000065
:100D100038B50446202383F31188FFF7C1FC237FF5
:100D20000F2B07D0094B626A9B6909201A60636226
:100D3000FFF70EFE256AFFF7C3FC002383F311883B
:100D40002046FFF795FF284638BD00BF481E00200B
:100D5000054B02469B6921B1036003201A62FFF72D
:100D60000FBE4FF0FF307047481E0020000000000B
:100D700003682BB10022026018461962FFF798BD84
:100D8000704700BF000000000000000000000000ED
:100D900069B1084B10B4024644689B690420C3E95A
:100DA0000024236053605DF8044BFFF7E9BD4FF06A
:100DB000FF307047481E00200000000000000000C7
:100DC000026890420AD010B414680460034663605D
:100DD000104611625DF8044BFFF76ABD704700BF13
:100DE00038B5036898420BD004460D461A68226055
:100DF000184654601D62FFF75BFD23689C42F5D1E5
:100E000038BD00BF0000000000000000000000002E
:100E1000014B5B6883607047001000E00000000039
:100E20000E4B0F4A5B68C168F0B48468D66F4268A5
:100E30001B1BD0E904459B1BE61845F100079342B4
:100E4000026888BF436001319342C0E90467C0E98A
:100E5000023138BF0360F0BC704700BF001000E0F3
:100E6000481E0020000000000000000000000000FC
:100E700010B50C4C86B000234FF0FF3100226846BD
:100E8000E367CDE9013303930023CDE90423009107
:100E9000FFF7BEFF6846FFF7C3FF029BE36706B09C
:100EA00010BD00BF481E0020000000000000000030
:100EB0000023C0E900008360704700BF000000000D
:100EC000034A044B02F50061C3E90021704700BFEB
:100ED000D01E0020C81E00200000000000000000FE
:100EE000F8B50E4604461546FFF762FC094AD2E9FA
:100EF00000737819013C3044714234440138084091
:100F0000214001448B4203D38F4201D81160F8BDC8
:100F10000020F8BDC81E00200000000000000000F6
:100F200070B5202304460D46164683F31188FFF75B
:100F3000B7FB324629462046FFF7D2FF0446FFF7AB
:100F4000BFFB002383F31188204670BD0000000022
:100F5000044B054A1A6003F10C000022C3E9012288
:100F6000FFF7A6BFD0260020210F000800000000D8
:100F7000064A536823F001035360EFF30983683393
:100F800083F30988002383F31188704730EF00E072
:100F9000202383F31188124B5B6813F4006302D1A2
:100FA00083F31188704710B5F1EE103AEFF309841E
:100FB0000C4B4FF08072DB6844F8083C44F84C2C32
:100FC000A4F1680383F30988FFF73AFD18B1064BD3
:100FD00044F8503C10BD054B44F8503C10BD00BFD8
:100FE00000ED00E030EF00E045030008500300088A
:100FF00008B500F0D5FB00F0FBFE00F0C9F800F0EA
:10100000DFF800F0BDF801F0DBFABDE8084000F0C1
:10101000CFB800BF0000000000000000000000008A
:10102000F8B5154682680669AA420B46816938BF41
:101030008568761AB54204461DD30AD818462A4652
:10104000FFF788F9E368A361A3685B1BA3602846E8
:10105000F8BD32461846FFF77DF9AF1B3A463044DB
:10106000E168FFF777F9A368E2685B1B3A44A26185
:10107000A3602846F8BD18462A46FFF76BF9A36916
:101080002B44A361A3685B1BA3602846F8BD00BF87
:1010900030B4029C046200250A4485600261C0E904
:1010A0000000C160C0E90511C36130BC704700BFDA
:1010B00038B504460D46FFF77BFBD4E90532934271
:1010C00011D0A268591C0132A26061611D70D4E97F
:1010D00004329A4201D3E368636120460021FFF79E
:1010E0006FFE002038BDA268002AEAD04FF0FF3022
:1010F00038BD00BF0000000000000000000000003C
:101100002DE9F04F83B006460D46144601929B46EA
:10111000C7694FF0200888F31188FFF7C1FAC4B1FE
:101120004FF00009224629463046FFF779FF8246F4
:10113000D0B1304607B1B847FFF7C2FA89F311883A
:10114000A4EB0A04554488F31188FFF7A9FA002C90
:10115000E8D1DDF804A0FFF7B3FA002383F3118888
:10116000504603B0BDE8F08F59463046FFF710FEF9
:101170000028D7D0019BA3EB040AECE70000000095
:10118000704700BF000000000000000000000000E9
:1011900000F0AEBE000000000000000000000000F3
:1011A000012200230270C0E901330C30FFF780BE3A
:1011B00000F0EEBE00000000000000000000000093
:1011C00001F046B800000000000000000000000030
:1011D0000023012202704370837043600372C0E9F0
:1011E0000333704700000000000000000000000012
:1011F00038B504460D46202383F31188FFF750FAD3
:101200002046656001F03CF802232370FFF758FA8E
:10121000002383F3118838BD0000000000000000A7
:1012200070B5202304460D46164683F31188FFF758
:1012300037FA32462946204601F0FAF80123A37016
:10124000FFF73EFA002383F3118870BD0000000011
:101250002DE9F0411F4604460E469046202383F3B5
:1012600011880125FFF71CFA424625723168204695
:1012700001F0AEF86570394604F11000FFF768FD23
:10128000054638B9FFF71CFA002383F31188284676
:10129000BDE8F081FFF78CFA6378012B05D04FF0A1
:1012A000FF3033681B1A3360ECE7204601F0B0F8DA
:1012B00000236370F5E700BF00000000000000009D
:1012C000430910B49B0000F1604404F5614403F14C
:1012D0006043090103F5614300F01F000122C9B218
:1012E00084F8001302FA00F0C3F880015DF8044BA3
:1012F00018607047000000000000000000000000BF
:1013000000F1604000F56D400901C9B201767047F7
:1013100008B5FFF71DFA104A516913680B4003F036
:101320000103536193B10D4A93680BB1D06898479C
:10133000202383F31188FFF7DBF900210748FFF72B
:101340004FFDFFF7EDF9002383F31188FFF718FA3B
:10135000BDE80840FFF71CBE003C0140702700209C
:1013600008B5FFF7F5F9104A516913680B4003F00F
:101370000203536193B10D4A93690BB1D069984749
:10138000202383F31188FFF7B3F900210848FFF702
:1013900027FDFFF7C5F9002383F31188FFF7F0F964
:1013A000BDE80840FFF7F4BD003C01407027002075
:1013B0008027002000000000000000000000000066
:1013C00008B5FFF7C5F9104A516913680B4003F0DF
:1013D0000403536193B10D4A936A0BB1D06A9847E5
:1013E000202383F31188FFF783F900210848FFF7D2
:1013F000F7FCFFF795F9002383F31188FFF7C0F995
:10140000BDE80840FFF7C4BD003C01407027002044
:1014100090270020000000000000000000000000F5
:1014200008B5FFF795F9104A516913680B4003F0AE
:101430000803536193B10D4A936B0BB1D06B98477E
:10144000202383F31188FFF753F900210848FFF7A1
:10145000C7FCFFF765F9002383F31188FFF790F9C4
:10146000BDE80840FFF794BD003C01407027002014
:10147000A027002000000000000000000000000085
:1014800008B5FFF765F9104A516913680B4003F07E
:101490001003536193B10D4A936C0BB1D06C984714
:1014A000202383F31188FFF723F900210848FFF771
:1014B00097FCFFF735F9002383F31188FFF760F9F4
:1014C000BDE80840FFF764BD003C014070270020E4
:1014D000B027002000000000000000000000000015
:1014E00010B5FFF735F93D4B5A691C68144004F4F8
:1014F00078725A61A30612D5394A936D0BB1D06D3B
:101500009847202383F31188FFF7F2F8002135482C
:10151000FFF766FCFFF704F9002383F311886006E8
:1015200012D52F4A936E0BB1D06E9847202383F3C8
:101530001188FFF7DDF800212B48FFF751FCFFF77A
:10154000EFF8002383F31188210612D5244A936F04
:101550000BB1D06F9847202383F31188FFF7C8F8A9
:1015600000212248FFF73CFCFFF7DAF8002383F361
:101570001188E20514D51A4AD2F8883013B1D2F88E
:101580008C009847202383F31188FFF7B1F80021DE
:101590001748FFF725FCFFF7C3F8002383F31188F2
:1015A000A30514D50E4AD2F8983013B1D2F89C0096
:1015B0009847202383F31188FFF79AF800210D48FC
:1015C000FFF70EFCFFF7ACF8002383F31188FFF759
:1015D000D7F8BDE81040FFF7DBBC00BF003C01407E
:1015E00070270020C0270020D0270020E0270020FF
:1015F000F02700200028002000000000000000006C
:1016000010B5FFF7A5F84B4B5A691C68144004F459
:101610007C425A61620514D5474AD2F8A83013B10A
:10162000D2F8AC009847202383F31188FFF760F8C5
:1016300000214248FFF7D4FBFFF772F8002383F341
:101640001188230514D53C4AD2F8B83013B1D2F82A
:10165000BC009847202383F31188FFF749F8002145
:101660003748FFF7BDFBFFF75BF8002383F31188D2
:10167000E00414D5304AD2F8C83013B1D2F8CC0007
:101680009847202383F31188FFF732F800212D4873
:10169000FFF7A6FBFFF744F8002383F31188A104AA
:1016A00014D5254AD2F8D83013B1D2F8DC009847C7
:1016B000202383F31188FFF71BF800212248FFF74E
:1016C0008FFBFFF72DF8002383F31188620414D5F4
:1016D000194AD2F8E83013B1D2F8EC009847202329
:1016E00083F31188FFF704F800211848FFF778FB0F
:1016F000FFF716F8002383F31188230414D50E4A4C
:10170000D2F8F83013B1D2F8FC009847202383F3C5
:101710001188FEF7EDFF00210D48FFF761FBFEF792
:10172000FFFF002383F31188FFF72AF8BDE810407C
:10173000FFF72EBC003C014070270020102800203D
:101740002028002030280020402800205028002099
:1017500060280020000000000000000000000000E1
:10176000062108B50846FFF7ABFD06210720FFF765
:10177000A7FD06210820FFF7A3FD06210920FFF79A
:101780009FFD06210A20FFF79BFD06211720FFF78A
:1017900097FD06212820BDE80840FFF791BD00BF56
:1017A000224B23481A696FEAC2526FEAD25210B52F
:1017B0001A611A69C2F308021A614FF0FF341A69FC
:1017C0005A695C6100215A6959615A691A6A62F062
:1017D00080521A621A6A02F080521A621A6A5A6AAF
:1017E0005C625A6A59625A6A1A6C42F080521A64F0
:1017F0001A6E42F080521A661A6E026842F48072C3
:1018000002601A6F02F44072B2F5407F03D04FF4C9
:1018100080321A671967064A536823F400735360CD
:1018200000F066FABDE81040FFF79ABF00380240AA
:1018300000700040000000000000000000000000F8
:10184000314B324A4FF080504FF4404118641160E0
:101850001A6842F001021A601A689207FCD599686A
:10186000294A21F003019960936813F00C03FBD11E
:101870001068254900F0F90010609360136843F484
:10188000803313600B689803FCD54B6F1E4A43F0FE
:1018900001034B67536F9907FCD51D4B53601368C9
:1018A0001A4943F0807313604B685A04FCD5164AFA
:1018B00013689B01FCD5174B174991601A68174BA9
:1018C0009A4217D0164B40F205721A600E4A93687E
:1018D00043F002039360936803F00C03082BFAD1E2
:1018E000536C43F480435364536E43F48043536614
:1018F000536E70470B4A0C4B12689A42E2D1084B68
:1019000040F205121A60E1E7003802400070004022
:1019100008544007002004E0009488381164002037
:10192000003C024000ED00E041C20F410000000019
:1019300008B5FEF70DFF084B084A196801F03D0194
:10194000996013680BB150689847FEF719FFBDE81E
:101950000840FFF71DBB00BF00600240EC260020DE
:1019600010B5FEF7F5FE094B094819688268890928
:1019700001F03D018C019C600AB1C0689047FEF700
:10198000FFFEBDE81040FFF703BB00BF0060024050
:10199000EC26002000000000000000000000000015
:1019A00010B5FEF7D5FE094B094819680269090C04
:1019B00001F03D010C049C600AB140699047FEF7BC
:1019C000DFFEBDE81040FFF7E3BA00BF0060024051
:1019D000EC260020000000000000000000000000D5
:1019E00010B5FEF7B5FE094B094819688269890DE3
:1019F00001F03D018C059C600AB1C0699047FEF77B
:101A0000BFFEBDE81040FFF7C3BA00BF0060024050
:101A1000EC26002000000000000000000000000094
:101A200008B5FEF795FE084B08485968026A01F0B0
:101A30003D01D9600AB1406A9047FEF7A1FEBDE8BA
:101A40000840FFF7A5BA00BF00600240EC26002066
:101A500010B5FEF77DFE094B09485968826A89096D
:101A600001F03D018C01DC600AB1C06A9047FEF7CD
:101A700087FEBDE81040FFF78BBA00BF0060024050
:101A8000EC26002000000000000000000000000024
:101A900010B5FEF75DFE094B09485968026B090C49
:101AA00001F03D010C04DC600AB1406B9047FEF789
:101AB00067FEBDE81040FFF76BBA00BF0060024050
:101AC000EC260020000000000000000000000000E4
:101AD00010B5FEF73DFE094B09485968826B890D28
:101AE00001F03D018C05DC600AB1C06B9047FEF748
:101AF00047FEBDE81040FFF74BBA00BF0060024050
:101B0000EC260020000000000000000000000000A3
:101B100008B5FEF71DFE084B08481968026C01F075
:101B20003D0199600AB1406C9047FEF729FEBDE87F
:101B30000840FFF72DBA00BF00640240EC260020E9
:101B400010B5FEF705FE094B09481968826C890932
:101B500001F03D018C019C600AB1C06C9047FEF71A
:101B60000FFEBDE81040FFF713BA00BF006402404B
:101B7000EC26002000000000000000000000000033
:101B800010B5FEF7E5FD094B09481968026D090C0F
:101B900001F03D010C049C600AB1406D9047FEF7D6
:101BA000EFFDBDE81040FFF7F3B900BF006402404D
:101BB000EC260020000000000000000000000000F3
:101BC00010B5FEF7C5FD094B09481968826D890DEE
:101BD00001F03D018C059C600AB1C06D9047FEF795
:101BE000CFFDBDE81040FFF7D3B900BF006402404D
:101BF000EC260020000000000000000000000000B3
:101C000008B5FEF7A5FD084B08485968026E01F0BB
:101C10003D01D9600AB1406E9047FEF7B1FDBDE8C5
:101C20000840FFF7B5B900BF00640240EC26002071
:101C300010B5FEF78DFD094B09485968826E890978
:101C400001F03D018C01DC600AB1C06E9047FEF7E7
:101C500097FDBDE81040FFF79BB900BF006402404C
:101C6000EC26002000000000000000000000000042
:101C700010B5FEF76DFD094B09485968026F090C54
:101C800001F03D010C04DC600AB1406F9047FEF7A3
:101C900077FDBDE81040FFF77BB900BF006402404C
:101CA000EC26002000000000000000000000000002
:101CB00010B5FEF74DFD094B09485968826F890D33
:101CC00001F03D018C05DC600AB1C06F9047FEF762
:101CD00057FDBDE81040FFF75BB900BF006402404C
:101CE000EC260020000000000000000000000000C2
:101CF0000E490F4A0F48002310B40B600E4C1946D2
:101D000001E052F80C0C016044F833100133102B41
:101D100002F10C02F5D10949094A5DF8044B4FF074
:101D2000FF338B60CB609360D36070476C270020DB
:101D3000C037000810600240EC260020006002401E
:101D400000640240000000000000000000000000ED
:101D5000F8B5DFF898C0477ADCF80050012404FA9F
:101D600007F62E423CD11F4C354304EBC70615F055
:101D7000FF0FCCF8005044F83720736009D01A4B9D
:101D80001C6B44F400141C631C6D44F400141C65AB
:101D90001B6D15F47F4F16D105682B6823F01F03C8
:101DA0002B602C6814F00104FBD1077A46683D23B0
:101DB000BB40212733602C606F617AB1807AFFF7D6
:101DC0007FFA2046F8BD084B1C6B44F480041C636A
:101DD0001C6D44F480041C651B6DDDE71046F8BDE6
:101DE0002046F8BDEC260020003802406C27002079
:101DF000054B002203F58071C3E90033C3E90222D9
:101E000010338B42F8D1704770270020000000008B
:101E10002DE9F04F02F00309C2F3800EC2F3C10CAA
:101E2000C2F34117C846C2F3C31200264FF0010A9D
:101E300016E0D0F800B003EA0B0343EA0803072ECC
:101E4000036044D8036A1D402C43046249083CD017
:101E50004FEA4E0E4FEA8C0CBF004FEA880801365D
:101E6000CB07F3D543680AFA06F423EA040343EAEE
:101E70000E03436003257300846805FA03F3DB4314
:101E80001C4044EA0C048460C56806F00704A40002
:101E90001D404FF00F0B3D430BFA04FBB9F1020F4D
:101EA000C56002FA04F46FEA0B05C2D1072E13D8FD
:101EB000D0F820B00BEA05052C43046204682340E7
:101EC00043EA080349080360C2D1BDE8F08F436AC2
:101ED0001D402C434462B9E7D0F824B00BEA050555
:101EE0002C434462EAE700BF00000000000000004D
:101EF00070B50F4E0F4D104C3046FFF751F90F4A99
:101F00000F4B1049F161204605F12401C6E9085143
:101F1000C6E90A23FFF744F90B490C4A0C4BE1616F
:101F2000A5F160010C3DC4E90815C4E90A2370BDA0
:101F30007028002014380008A02800201600010690
:101F40004600010600300140003C00401600010040
:101F5000460001000000000000000000000000003A
:101F600008B5FEF7F5FB202383F31188FEF7C0FBCD
:101F7000FEF73EFBFEF7D4FB002383F31188FEF748
:101F8000FFFBBDE80840FFF703B800BF00000000FA
:101F9000054B064A5A600021072299600B20082150
:101FA0001A60FFF7ADB900BF10E000E03F900200FB
:101FB000C1690A68136823F01F0330B41360136803
:101FC000DB07FCD40D7A046A496822683D23AB40E4
:101FD0000B60136823F01F031360136813F00103F1
:101FE000FBD1257A426960683D21A940016030BC7F
:101FF000D3601361536170470000000000000000CF
:1020000011F00C0F38B504462DD1216A0A68136807
:1020100023F01F0313601368DB07FCD463680D7A99
:1020200048681A683D23AB40022103606170BAB171
:10203000204690476378022B12D0237A03B938BD2B
:10204000202383F31188FEF753FB04F110000021D5
:10205000FEF78EFEFEF764FB002383F3118838BD84
:1020600000236370E9E70248FEF7B2FACDE700BF4C
:1020700074380008000000000000000000000000AC
:1020800011F00C0F2DE9F0410D46044613D1A27852
:1020900063683AB9DB68002B37D0A18C2046BDE8D5
:1020A000F04118475A6A52B1E80630D5204600215F
:1020B000BDE8F04110472548FEF78AFAE7E7E069F6
:1020C00001680A6822F01F020A600A68D207FCD47D
:1020D000077A46689D683D22BA4002203260A070AF
:1020E000FDB12046A847A378022B17D0202383F305
:1020F0001188FEF7FDFA04F10C000021FEF738FE0E
:10210000FEF70EFB002383F31188BDE8F081A906DA
:10211000FBD520460121BDE8F0411047E269636824
:102120001168DB68A269002B14BF4FF488734FF469
:10213000807313430120002504F12402A570CA60B6
:1021400048600B600B6803430B60CFE774380008EE
:10215000F8B53A4EFEF7FCFA7469E76825686368DB
:1021600040F20F131D422CD073681A696FF480730C
:102170002360BAB1ABB213F0080F0CBF00211021DD
:10218000D80748BF41F00401980748BF41F0080153
:10219000580748BF41F02001DB0548BF41F040012E
:1021A00026489047202383F31188FEF7A1FA6FF0A9
:1021B00001012348FEF7DCFDFEF7B2FA002383F3AA
:1021C000118868060ED579060CD573686FF040014A
:1021D0005A68216007EA0103E3600AB11748904793
:1021E000347AECB1EA0615D5FB0613D573681B6A81
:1021F0000BB112489847202383F31188FEF778FA31
:102200004FF0FF310E48FEF7B3FDFEF789FA0023C9
:1022100083F31188FEF7B4FABDE8F840FEF7B8BEC4
:10222000202383F31188FEF763FA21460548FEF761
:102230009FFDFEF775FA84F31188D3E7D0280020BC
:10224000DC280020E0280020000000000000000042
:1022500010B5074C2046FEF7BBFF064B064A6261ED
:10226000062103F11802C4E90613226210BD00BF63
:10227000D0280020CC370008004C004000000000AF
:102280000378012B2DE9F041044655D04569002320
:10229000A37063702046FFF78BFE434B6169994240
:1022A00063683BD041485A69814238D04049B1FB0C
:1022B000F2F2198B080438D4D3F80CE0D3F820805C
:1022C0005F8B988BE369AA602A686A68D4F818C0A3
:1022D0001B6800222A6042F21C1642F20C12B8F16E
:1022E000000F08BF1646BEF1000F14BF4FF48872EE
:1022F0004FF48072314342EA0C02012647F0400756
:1023000040F0C10024342F616861E960DC605E60E8
:102310001A601A6832431A60BDE8F0815A6925498B
:10232000B1FBF2F2198B0804C6D522F0070002F0C7
:10233000070242EA4002BFE71F4B984215D063688C
:102340001B8B03F4A053B3F5805F03D1A36943F45F
:102350002053A361D4E90723656910681968002236
:102360002B1D83608B60A28491E70346134AC069EA
:102370000621FFF7EDFC2346114A206A0621FFF7EC
:10238000E7FC104B1A6C42F400221A641A6E42F4F5
:1023900000221A66062134201B6EFEF791FFA36906
:1023A00043F00063A361CAE700100140001401403C
:1023B00080DE800200BD0105D028002081200008B9
:1023C000012000080038024000000000000000006A
:1023D00030B4036A456884691B686D68DA6044F448
:1023E0008A6459601C606DB142696FF040011160F0
:1023F000D16841F04001D1601A6842F001021A60D0
:1024000030BC7047027A002AEED0F5E700000000E9
:10241000016A0A68136823F01F0313601368DB075F
:10242000FCD4087A49683D2383400B6050687047AC
:10243000F0B4C5692B681C6824F01F041C601C687C
:10244000E407FCD444682F7A6E68656A3D24BC407A
:1024500034608069DA60002D0CBF4FF482624FF463
:10246000A362024359601A601A6842F001021A60BE
:10247000F0BC7047000000000000000000000000F9
:10248000404A414913694148F0B440F2FF142343E4
:10249000136113693E4E3F4D23F4FF7323F0010394
:1024A00013611369136B23431363136D2343136584
:1024B0006FF4A8470023126D4B604FF6FF728F60D8
:1024C000CE60354E4A610E62344E4E6206F12A5697
:1024D00006F5B0160E60402646604FF0FF31304ED4
:1024E0008160C6604FF08066426106624FF402561A
:1024F000436206602B4E2C4C6B60A960EE60012697
:102500006A612B626B622E60284D6360A160E5609A
:1025100040F6FF756561264D2362264E6362256095
:10252000C0F8043C244DC0F8081C04F58054C0F8E1
:102530000C3CC0F8142CC0F8203CC0F8243CC0F877
:10254000003C00F5E0507360B160F360726133628B
:10255000736233606B60A960EB606A612B626B62CF
:102560002B606360A160E360626123626362236049
:102570004360F0BC8160C3604261036243620360F8
:10258000FFF75EB90038024000000240000402403C
:1025900054000140000802400000565500AA0A00FD
:1025A0001585AAAAA8AAAAAA000C0240555055004F
:1025B0000001005500140240001802400000000015
:1025C000704700BF00000000000000000000000095
:1025D000434B1A69002A75DB70B5414BDA68D103A9
:1025E000FCD41A6922F480721A611A6942F40072EA
:1025F0001A611A6922F0F8021A61C20703D51A6932
:1026000042F008021A61860704D5354A136943F07F
:1026100010031361450704D5314A136943F02003C1
:102620001361040704D52E4A136943F04003136174
:10263000C10641D42A4B1A6942F002021A611A6992
:1026400042F480321A61DA68D203FCD41A6922F0AB
:1026500002021A611A6942F0004206461A61002815
:102660003AD005464FF00064013DEDB2284600F037
:1026700077F90444002DF7D1304600F071F90328B2
:1026800005D80AE00438032804F1040405D92368B6
:102690000133F7D06FF00A0070BD0028FCD023781A
:1026A000FF2BF7D1204402E02378FF2BF2D1013435
:1026B000A042F9D1002070BD094A136943F080039C
:1026C0001361B7E70749084A59605A601B69002B34
:1026D00082DA4FF0FF3070474FF00064CCE700BF64
:1026E000003C024023016745AB89EFCD00000000AC
:1026F00008B50B4601461846FDF72CFE002008BD24
:102700002DE9F043464B1F69002F83B004460E4667
:10271000154679DB424FFB68D803FCD43B6923F4B0
:1027200080733B613B6943F400733B6114F0030326
:1027300023D0A4EB030902A8C3F10408D9F80020B0
:1027400040F8042DA84528BFA84618444246314603
:10275000FDF700FE3B690199314A43F001033B61FB
:10276000C9F80010D368D903FCD4136923F001031E
:1027700044444644A5EB08051361032D23D9A5F174
:10278000040E4FEA9E0C264A06EB8C07311FA01B55
:10279000136951F8048F43F00103136140F801807D
:1027A000D368DB03FCD41369B94223F0010313613E
:1027B000EED104342EF0030E0CF1010C744406EB40
:1027C0008C0605F0030545B9154A136943F000432B
:1027D0001361002003B0BDE8F08302A8236840F82D
:1027E000043D2A463146FDF7B5FD0D4A01991369AE
:1027F00043F0010313612160D368DB03FCD4136948
:1028000023F001031361DFE70649074A59605A6064
:102810001B69002BBFF67EAF4FF0FF30DAE700BF39
:10282000003C024023016745AB89EFCD000000006A
:10283000F8B5234D234C4FF480610E464FF40077DA
:1028400028460122FFF7E4FA284601223946AE6104
:10285000FFF7DEFA284601224FF48071AF61FFF7DF
:10286000D7FA4FF48073AB61284601224FF4006120
:10287000FFF7CEFA4FF400633946AB6120460122E0
:10288000FFF7C6FA4FF00073A361204601224FF410
:102890000041FFF7BDFA4FF000433146A3612046E7
:1028A0000122FFF7B5FA4FF08063A36120460122B1
:1028B0004FF48041FFF7ACFA4FF08043A361F8BDBD
:1028C00000000240000C0240000000000000000078
:1028D00010B40E4B0E491A6892F8913043F0010380
:1028E00082F891300B68022403204FF4E13183F821
:1028F0002A4783F82E4783F82B0783F82F07C2F85F
:102900008010C3F830185DF8044B7047281600207B
:102910002C16002000000000000000000000000055
:102920000A4B0B4A1B68116893F890200120024360
:1029300083F89020C1F8380A93F89020042142F0DF
:10294000080283F86B1083F8902070472816002047
:102950002C16002000000000000000000000000015
:10296000032811D9A0F10C03032B0DD904280ED094
:1029700010280CD0431F062B0CD91138062894BF01
:102980004FF40030002070474FF4804070474FF400
:10299000803070474FF40030704700BF00000000E7
:1029A0002DE9F041202383F31188FDF7A1FE124B9E
:1029B000124FDB691B685E683B6A3D6AC6F1200600
:1029C000B342C8BF2036AE420EDDDFF834802C465D
:1029D00003E0A64204F01F0506D0795D4046FEF7ED
:1029E00067FB01340028F4D03D62FDF799FE002317
:1029F00083F31188BDE8F081D0280020F82800205A
:102A0000CC2A0020000000000000000000000000B0
:102A1000FFF7C6BF0000000000000000000000003B
:102A2000FFF7BEBF00000000000000000000000033
:102A300070B51E4C94F8F13213F0010382B002D14C
:102A4000036002B070BD1A4E1A481B4D00F0F8FA30
:102A500033681A4893F82B1740F2024200F028FA24
:102A60003368174893F82A1740F2024200F020FA20
:102A70000026144800F0E4FA05F1240105F5EA7097
:102A800033464FF4D7720096FEF702FB0E49D4F896
:102A9000E0320E484B61FEF7ABFB0C482E622A4633
:102AA000202102B0BDE87040FEF7BABB0000001064
:102AB0002C16002090380008F8280020A8380008BC
:102AC000B8380008C838000800160020D0280020B8
:102AD00010B582B002A8144640F8042D4FF47A7362
:102AE0000A4601460648FEF7B3FB019AA24204D00B
:102AF00023460449044800F0ABFA02B010BD00BF01
:102B0000D0280020DC380008B8BA002000000000FF
:102B10000148FEF7F5BA00BFCC2A002000000000F3
:102B200063498160F0B500244FF47F450460C460C0
:102B3000846144620463C463846444650466C46657
:102B4000846785800582858305858586A0F8405049
:102B5000A0F84C50A0F85850A0F8645041610162B0
:102B6000C162816341640165C16581664167C0F8E6
:102B700080102246A0F8705000F1B003A0F87C50FD
:102B8000C0F88440A0F88850C0F89040A0F8945055
:102B9000C0F8A040A0F8A450C0F88C10C0F898105D
:102BA000C0F8A81000F5B875FF2499601A601A7172
:102BB0005C710C33AB42F8D14FF47F43C0F8702105
:102BC000C0F87C21C0F88821C0F89421A0F87431A5
:102BD000A0F88031A0F88C31A0F89831C0F87811B5
:102BE000C0F88411C0F89011C0F89C1100F5D073A2
:102BF00000F548750022FF240026002799601A601E
:102C00001A715C71DA60C3E904675A769A761C76A9
:102C10002033AB42F2D100F588650022FF24996091
:102C20001A601A715C71DA601A751A611833AB4256
:102C3000F5D1204CDFF898E0DFF898C0C0F84814D0
:102C40004FF47F47C0F84024C0F85814C0F84C2413
:102C5000C0F85024C0F85C2404F59075264623463D
:102C6000A0F84474A0F854741349C0F8ACE0134AB7
:102C7000C0F89CC001E051F8042FC3F82C2318338E
:102C8000AB42F8D10E490F4A002384F8B831013322
:102C90000C2BC4F8AC2104F1200402D051F8042F0D
:102CA000F3E7094A094BC6F84C24C6F85C34F0BD7A
:102CB000F02A0020F82A0020283900088839000866
:102CC000583900088C390008A0390008A4390008D8
:102CD000903900089839000800000000000000004A
:102CE000184B98421FD003F58063984221D003F51A
:102CF0008063984219D003F5806398421BD003F596
:102D00008063984219D003F5006398420FD003F511
:102D10008063984213D00C490C4B0D4A88420CBF7B
:102D20001846104670470B4870470B4870470B48D1
:102D300070470B4870470B4870470B4870470B486B
:102D4000704700BF00000240001402401C39000818
:102D50002039000800390008083900081439000833
:102D6000043900080C390008103900081839000827
:102D7000012907D910B58C1E230658BF04F00F0097
:102D800003D410BD4FF0FF30704702460B4641F2AE
:102D9000F270034900F064F94FF0FF3010BD00BF3E
:102DA000A83900080000000000000000000000003A
:102DB0000148FFF7B5BE00BFF82A00200000000060
:102DC000064B1B6840203F21132283F80C0883F830
:102DD0000D1883F80E28FFF72BBD00BF2C1600201E
:102DE00030B40F4B0F491A6892F8913043F0210329
:102DF00082F891300B682C202D214FF416454FF4AA
:102E0000E13483F82A0783F82E0783F82B1783F819
:102E10002F17C2F88050C3F8304830BCFFF758BDB8
:102E2000281600202C1600200000000000000000E2
:102E30000B4B0C4A1B68116893F89020032042F05A
:102E4000040283F89020C1F8380A93F890203621C4
:102E500042F0080283F86B1083F89020FFF760BD02
:102E6000281600202C1600200000000000000000A2
:102E7000012908D910B58C1E230606D42411074B4E
:102E800053F8240010BD0020704702460B4641F263
:102E9000F270034900F0E4F8002010BD4C3A00083D
:102EA000A839000800000000000000000000000039
:102EB000F0B583B005460E461746FFF7D9FF3146F9
:102EC00004462846FFF754FF84B106462046FFF724
:102ED00007FF2A4603460B490B48009600F0B8F856
:102EE0002A463146204600F05BF808B103B0F0BD39
:102EF00001213A462046B14003B0BDE8F040FEF75C
:102F000087BF00BF6C3A0008582F00200000000067
:102F10000149024800F0ACB8443A0008582F00209C
:102F200008B51C4B98421ED003F5806398421ED012
:102F300003F58063984218D003F58063984218D057
:102F400003F58063984216D003F58063984214D04D
:102F500003F5806398421AD003F58063984208BF56
:102F600007200CD108BD002008BD022008BD0120AB
:102F700008BD032008BD042008BD052008BD064982
:102F800041F2F47000F06CF84FF0FF3008BD0620FD
:102F900008BD00BF00000240843A000800000000A5
:102FA0002DE9F041194B1C6882B02CB30D46174631
:102FB0008046FFF7B5FF164C05EB001654F82600C7
:102FC00040B9144A44F8267013680133136002B004
:102FD000BDE8F0814046FFF783FE54F826300193A8
:102FE000024600972B460C4941F2F57000F038F884
:102FF000012002B0BDE8F081084941F2F37000F011
:103000002FF8204602B0BDE8F08100BF5C320020FE
:103010005C30002060320020B03A0008943A00088A
:103020000149024800F024B8783A000864320020D0
:10303000704700BF0000000000000000000000001A
:103040000FB404B0704700BF000000000000000093
:103050000EB403B0704700BF000000000000000085
:103060000EB403B0704700BF000000000000000075
:10307000704700BF000000000000000000000000DA
:1030800030B5164B83B004461B68154805226946C7
:10309000FFF73EFD052802D0002003B030BD9DF8AB
:1030A00000309DF801509DF802109DF80300009A31
:1030B0006B404B409DF804104340994212BAEBD14B
:1030C00002F17843B3F5004F38BF064B4FF00100D3
:1030D00038BFD218226003B030BD00BF30160020C8
:1030E00068330020243500180000000000000000B4
:1030F00010B5044672B6FDF7B3FA0F4A606853681C
:1031000023F0805353600022930003F1604303F5E2
:1031100061430132D3F80012C3F88010082AF3D1BA
:10312000002383F31488236883F3088880470348C7
:10313000BDE81040FDF74CBA00ED00E0CC3A0008C5
:103140002DE9F04F89B008A9C948CA4CDFF83C9373
:10315000DFF82483792301F81D3D0122C823236071
:103160000646FFF7B5FC4FF400424FF000614846B9
:10317000FDF7F0F82368002701220DEB020130462D
:10318000FFF7C6FC0128054610D06FB9002009B032
:10319000BDE8F08F5246B8493046FFF7B9FC012828
:1031A000074600F02E8101272368E5E702462368E1
:1031B0000DF102013046FFF7ABFC012882460BD02F
:1031C000002FE3D008A91F2301F81C3D2A463046F2
:1031D000FFF77EFC2368CFE79DF801309DF80220C1
:1031E000DB43DBB29A4208A908D01F2301F81B3D3C
:1031F00002463046FFF76CFC2368BDE7792502469E
:1032000001F81A5D3046FFF763FC9DF801204FF48A
:103210007A73112A23600AD01AD9312A53D0442A4A
:10322000B8D0212A3CD04FF47A730127A4E707A82D
:10323000FFF726FF08A90746002874D11F2301F8CD
:103240000B3D52463046FFF743FC2368012793E7C6
:10325000002A47D0022AE6D1884B08A91F6801F846
:1032600016AD52463046FFF733FCC7F30B0708A9EB
:103270003B0A01F8153D52463046FFF729FC08A9E4
:10328000524601F8147D3046FFF722FC08A9524649
:1032900001F8135D3046FFF71BFC574623686BE7C8
:1032A00007A8FFF7EDFE08A90746002800F09F8059
:1032B000524601F8125D3046FFF70AFC0798FFF707
:1032C00017FF236858E707A8FFF7DAFE08A90746A3
:1032D000002852D11F2301F8073D52463046FFF720
:1032E000F7FBB2E708A90623654D01F8183D5246E1
:1032F0003046FFF7EDFBAF1D312301E015F8013B30
:103300008DF8093001220DF109013046FFF7E0FB8D
:10331000AF42F3D108A9792301F8193D01223046C3
:10332000FFF7D6FB3FE7524601F80C5D3046FFF74A
:10333000CFFB5246236804A93046FFF7E9FB01287A
:1033400083D1024623680DF111013046FFF7E0FBFF
:10335000012802467FF479AF9DF810309DF81100E6
:10336000D943C9B2884208A900F0D4801F2301F8CC
:103370000D3D3046FFF7ACFB67E7524601F8085DAC
:103380003046FFF7A5FB524623683B493046FFF71E
:10339000BFFB01287FF459AF98F80050DFF8E4B084
:1033A000236805F1020A524659463046FFF7B0FB42
:1033B00082457FF44AAF5FFA8AF2012A98F800301A
:1033C00008D90BF1FF32AB4412F8011F5A4583EACA
:1033D0000103F9D118F80A209A4272D008A91F23D4
:1033E00001F8093D01223046FFF772FB2DE71F234C
:1033F00001F8113D52463046FFF76AFB57462368F5
:10340000BAE6024623681F493046FFF781FB0128D0
:103410007FF4CAAE98F8001098F80120236842EAB9
:1034200001224FF6FF718A4260D05200D51C2A4615
:1034300015493046FFF76CFB85427FF406AF6B1CE5
:10344000DBB2012B98F8001009D90B480122013298
:1034500010F8017FD2B29A4281EA0701F7D308EB54
:1034600005035B788B4227D1013D00271BE000BF9D
:10347000683300203016002024B50020002004E02E
:10348000E13A000825B5002026B5002024350020AB
:103490009A78DB7843EA022318B2012BC0B232D902
:1034A000FFF796F80237BD4208EB0703F0DC08A9E6
:1034B000792301F8063D31E708A91F2301F8053DEE
:1034C0002CE707982349484505F1010202D3224B16
:1034D000984237D3FFF714F908A9792301F80A3D78
:1034E00001223046FFF7F4FA236845E601221B4922
:1034F0003046FFF70DFB012805467FF4A6AE98F88D
:1035000000100223A1E74FF40042FF21484600F0DB
:103510006FF8C7E701F80E5D30465D1CFFF7D8FA7B
:103520000799494502D30C4B99420ED308462A46C7
:103530004146FFF7DDF82A4641463046FFF7C8FA14
:10354000236819E6FCF706FFC6E72A464046FCF763
:1035500001FFF0E725B5002024B5002026B50020A6
:1035600000487047683300200000000000000000A1
:1035700008B5054B054A9B699A61FFF7E1FD0020FC
:10358000BDE80840FDF7B4BB481E0020F03A000833
:1035900010B582B0FDF72CFD0024FCF7D1FFFFF73A
:1035A0000FFCFFF71DFCFFF743FCFFF7D9FFFFF708
:1035B0003FFA084B009480224FF492610648FDF7D1
:1035C0000FFBFDF7A5FB0548FFF792FD204602B073
:1035D00010BD00BF7135000828B60020008000082B
:1035E00001490248FFF744BDE83A0008B8BA002094
:1035F000F0B4860743D0541E002A3ED0CAB2034618
:1036000002E014F1FF3438D303F8012B9D07F8D101
:10361000032C2BD9CDB245EA05250F2C45EA0545EB
:1036200016D9A4F110073F0903F1200606EB07168F
:1036300003F1100242E9045542E902551032B24248
:10364000F8D104F00F040137032C03EB07130DD955
:103650001E462246043A032A46F8045BFAD8221F83
:1036600022F003020432134404F003042CB1C9B263
:103670001C4403F8011B9C42FBD1F0BC704714466C
:103680000346C5E7383B0008BCBB0020BCBB00209C
:10369000BCBB0020383B00080000002000000020D8
:1036A00000000020383B000800C0012000C00120BD
:1036B00000C00120383B00080000000000000000AE
:1036C00000000000383B000800000010000000105F
:1036D00000000010383B000800400240004002405B
:1036E00000400240383B00080000000000000000DD
:1036F00000000000383B000800000000000000004F
:10370000000000002E2E2F43686962694F532F6F0F
:10371000732F72742F7372632F63687379732E63C0
:10372000000000003C37000838160020481E00202A
:1037300001000000310500080000000069646C65AC
:10374000000000005356233100000000535623337D
:103750000000000053562338000000005356233960
:103760000000000053562334000000005356233657
:103770000000000053562335000000005356233745
:10378000000000005356233130000000535623310F
:10379000310000006E6F6E616D6500006D61696ED5
:1037A00000164028040444080C101418001C1D00C6
:1037B0001F000000106002400860024000000B0083
:1037C000286002400860024006010C004060024090
:1037D0000860024010020D0058600240086002407C
:1037E00016030E00706002400C60024000040F00DF
:1037F000886002400C60024006051000A060024094
:103800000C60024010061100B86002400C600240DB
:1038100016072F00106402400864024000083800B8
:1038200028640240086402400609390040640240EE
:1038300008640240100A3A005864024008640240DA
:10384000160B3B00706402400C640240000C3C000C
:10385000886402400C640240060D4400A0640240EB
:103860000C640240100E4500B86402400C64024033
:10387000160F460053544D33325F554152545F4446
:103880004D415F4552524F525F484F4F4B00000031
:1038900054756E657253747564696F206F766572C6
:1038A000205553415254000074756E6572737475DF
:1038B00064696F207278000074756E657273747538
:1038C00064696F20747800005573696E67205541F4
:1038D00052542D444D41206D6F64650021212120FB
:1038E0004E4F5420414343455054454420256420C5
:1038F0006F7574206F66202564202121210000004F
:10390000504100005042000050430000504400006D
:10391000504500005047000050480000504600004D
:10392000756E6B6E6F776E0088390008183A000864
:103930001C3A0008203A0008243A0008283A0008F7
:103940002C3A0008303A0008343A0008383A0008A7
:103950003C3A0008403A00088C390008EC3900086D
:10396000F0390008F4390008F8390008FC3900087B
:10397000003A0008043A0008083A00080C3A000827
:10398000103A0008143A0008633100006931000061
:1039900064697A7A7900000074616368000000004D
:1039A000613100006132000025733A20496E766172
:1039B0006C696420627261696E5F70696E5F653AFE
:1039C000202564006F757470757450696E205B25D6
:1039D000735D20616C7265616479206173736967DE
:1039E0006E656420746F20257825640069320000BC
:1039F0006933000069340000693500006936000051
:103A000069370000693800006A3900006941000028
:103A10006942000069430000633200006333000024
:103A20006334000063350000633600006337000034
:103A30006338000063390000634100006342000006
:103A400063440000696F5F70696E7300000002409C
:103A50000004024000080240000C02400010024036
:103A60000014024000180240001C02402573206F21
:103A70006E2025732564000070696E207265706F7A
:103A800073000000756E6B6E6F776E20706F7274CE
:103A9000000000007265706F7369746F7279206E38
:103AA0006F7420696E697469616C697A656400007D
:103AB0002573256420726571206279202573207535
:103AC0007365642062792025730000006466754A7E
:103AD000756D70546F417070204641494C00000074
:103AE000310002112131440062696E617279000077
:103AF000426F6F746C6F6164657253657269616C5B
:103B000000000000000000000000000000000000B5
:103B10000000000000000000000000000000004065
:103B200000000000212A0008112A0008600200108D
:083B300008000010C8000000AD
:1080000000100020D1830008D3830008D383000828
:10801000D3830008D3830008D3830008D3830008E8
:10802000D3830008D3830008D383000811A8000875
:10803000D3830008D3830008D3830008D1D5000878
:10804000D3830008D3830008D3830008D3830008B8
:10805000D3830008D383000891B90008E1B9000870
:1080600041BA0008A1BA000801BB000821CB0008F2
:1080700051CB000891CB0008D1CB000811CC0008EF
:1080800041CC000881CC0008B1C1000881C70008BC
:10809000A1C70008C1C70008E1C7000861BB00080C
:1080A00091DB000821DB0008D383000841DB0008D6
:1080B00051DB000871DB0008C1DD0008D383000834
:1080C000D3830008D3830008D3830008D383000838
:1080D000D3830008D3830008D3830008D383000828
:1080E00081BC0008D3830008D3830008D383000831
:1080F000E1DD0008D383000801DE0008C1CC0008E0
:10810000D3830008D383000821D60008D383000856
:10811000B1DF0008D3830008D3830008D3830008AD
:1081200001CD000831CD000871CD0008B1CD0008A7
:10813000F1CD0008D3830008D383000801C80008EC
:1081400021C8000841C8000861C80008D38300089E
:1081500021CE000861CE0008A1CE0008D38300081C
:10816000D3830008D3830008D3830008D383000897
:10817000D3830008D3830008D3830008D383000887
:10818000D3830008D3830008D3830008D383000877
:10819000D3830008D3830008D3830008D383000867
:1081A000D3830008D3830008D3830008D383000857
:1081B000D3830008D3830008D3830008D383000847
:1081C000D3830008D3830008D3830008D383000837
:1081D000D3830008D3830008D3830008D383000827
:1081E000812A0108713001089140010821440108E9
:1081F000E14A01081155010831810108D19A0108AD
:10820000019C0108619F0108B1A4010801AF0108A8
:1082100011C70108A1CF0108D1F2010831FD010801
:108220005114020811210208F15B0208015F0208E3
:10823000216102081165020811710208717B0208B0
:10824000518B0208919602088198020831A5020814
:10825000A1B7020801BD0208A1D70208C1DB0208CC
:1082600031E9020891F7020801F80208511E0308DB
:1082700011230308F12B030811330308C14103083C
:10828000B147030891520308C1530308115603086C
:1082900011590308A1620308618D030821A3030893
:0882A000F1BF0308E1C103086E
:1082B00072B6394880F30888384880F3098838480E
:1082C0004EF60851CEF20001086040F20000CCF2F8
:1082D00000004EF63471CEF200010860BFF34F8FFC
:1082E000BFF36F8F40F20000C0F2F0004EF68851ED
:1082F000CEF200010860BFF34F8FBFF36F8F4FF0D6
:108300000000E1EE100A4EF63C71CEF2000108606A
:10831000062080F31488BFF36F8F01F071FB06F025
:1083200007F84FF055301F491B4A91423CBF41F8B6
:10833000040BFAE71C49194A91423CBF41F8040B6F
:10834000FAE71A491A4A1B4B9A423EBF51F8040BEE
:1083500042F8040BF8E700201749184A91423CBF45
:1083600041F8040BFAE701F063FB01F051FB144CF8
:10837000144DAC4203DA54F8041B8847F9E733F094
:1083800037FF114C114DAC4203DA54F8041B8847F7
:10839000F9E701F045BB00000010002000160020A6
:1083A000008000080000002000100020F00E0508EA
:1083B000001600207C2200208022002018B8012016
:1083C000E0810008A8820008A8820008A8820008AE
:1083D0006EE700F000F8FEE72DE9F04F2DED108A72
:1083E000C1F80CD0C3689D46BDEC108ABDE8F08F83
:1083F00001F00EFC002383F311882846A0470020DB
:1084000001F05EFF01F0F4FB01F01AFE01F000FC48
:1084100000DFFEE781F0004102E000BF83F000438F
:1084200030B54FEA41044FEA430594EA050F08BF0F
:1084300090EA020F1FBF54EA000C55EA020C7FEAD3
:10844000645C7FEA655C00F0E2804FEA5454D4EB50
:108450005555B8BF6D420CDD2C4480EA020281EA1A
:10846000030382EA000083EA010180EA020281EA52
:108470000303362D88BF30BD11F0004F4FEA0131A4
:108480004FF4801C4CEA113102D0404261EB4101B3
:1084900013F0004F4FEA03334CEA133302D0524239
:1084A00063EB430394EA050F00F0A780A4F10104F5
:1084B000D5F1200E0DDB02FA0EFC22FA05F280182F
:1084C00041F1000103FA0EF2801843FA05F3594115
:1084D0000EE0A5F120050EF1200E012A03FA0EFC94
:1084E00028BF4CF0020C43FA05F3C01851EBE371BE
:1084F00001F0004507D54FF0000EDCF1000C7EEBDB
:1085000000006EEB0101B1F5801F1BD3B1F5001F18
:108510000CD349085FEA30004FEA3C0C04F1010437
:108520004FEA445212F5800F80F09A80BCF1004F60
:1085300008BF5FEA500C50F1000041EB045141EAE2
:10854000050130BD5FEA4C0C404141EB010111F4E3
:10855000801FA4F10104E9D191F0000F04BF01468E
:108560000020B1FA81F308BF2033A3F10B03B3F16C
:1085700020020CDA0C3208DD02F1140CC2F10C02FC
:1085800001FA0CF021FA02F10CE002F11402D8BF5A
:10859000C2F1200C01FA02F120FA0CFCDCBF41EA26
:1085A0000C019040E41AA2BF01EB0451294330BDF5
:1085B0006FEA04041F3C1CDA0C340EDC04F11404D2
:1085C000C4F1200220FA04F001FA02F340EA0300A9
:1085D00021FA04F345EA030130BDC4F10C04C4F1EF
:1085E000200220FA02F001FA04F340EA03002946CF
:1085F00030BD21FA04F0294630BD94F0000F83F419
:10860000801306BF81F480110134013D4EE77FEAFB
:10861000645C18BF7FEA655C29D094EA050F08BF47
:1086200090EA020F05D054EA000C04BF1946104628
:1086300030BD91EA030F1EBF0021002030BD5FEA6C
:10864000545C05D14000494128BF41F0004130BD94
:1086500014F580043CBF01F5801130BD01F00045E8
:1086600045F0FE4141F470014FF0000030BD7FEA5B
:10867000645C1ABF194610467FEA655C1CBF0B4656
:10868000024650EA013406BF52EA033591EA030F6D
:1086900041F4002130BD00BF90F0000F04BF002165
:1086A000704730B54FF4806404F132044FF0000598
:1086B0004FF0000150E700BF90F0000F04BF002111
:1086C000704730B54FF4806404F1320410F0004577
:1086D00048BF40424FF000013EE700BF42004FEA72
:1086E000E2014FEA31014FEA02701FBF12F07F43EF
:1086F00093F07F4F81F06051704732F07F4208BFA6
:10870000704793F07F4F04BF41F40021704730B5AC
:108710004FF4607401F0004521F000411CE700BFF8
:1087200050EA010208BF704730B54FF000050AE07B
:1087300050EA010208BF704730B511F0004502D57C
:10874000404261EB41014FF4806404F132045FEA7E
:10875000915C3FF4D8AE4FF003025FEADC0C18BF27
:1087600003325FEADC0C18BF033202EBDC02C2F119
:10877000200300FA03FC20FA02F001FA03FE40EAAB
:108780000E0021FA02F11444BDE600BF70B54FF0AF
:10879000FF0C4CF4E06C1CEA11541DBF1CEA13558D
:1087A00094EA0C0F95EA0C0F00F0DEF82C4481EAF5
:1087B000030621EA4C5123EA4C5350EA013518BF15
:1087C00052EA033541F4801143F4801338D0A0FB02
:1087D00002CE4FF00005E1FB02E506F00042E0FBAF
:1087E00003E54FF00006E1FB03569CF0000F18BFB5
:1087F0004EF0010EA4F1FF04B6F5007F64F540745D
:1088000004D25FEA4E0E6D4146EB060642EAC621EF
:1088100041EA55514FEAC52040EA5E504FEACE2E5C
:10882000B4F1FD0C88BFBCF5E06F1ED8BEF1004F5F
:1088300008BF5FEA500E50F1000041EB045170BDDB
:1088400006F0004646EA010140EA020081EA03011F
:10885000B4EB5C04C2BFD4EB0C0541EA045170BD1B
:1088600041F480114FF0000E013C00F3AB8014F195
:10887000360FDEBF002001F0004170BDC4F10004DE
:10888000203C35DA0C341BDC04F11404C4F120055F
:1088900000FA05F320FA04F001FA05F240EA0200BA
:1088A00001F0004221F0004110EBD37021FA04F6F0
:1088B00042EB06015EEA430E08BF20EAD37070BDAA
:1088C000C4F10C04C4F1200500FA04F320FA05F009
:1088D00001FA04F240EA020001F0004110EBD3700B
:1088E00041F100015EEA430E08BF20EAD37070BD7B
:1088F000C4F1200500FA05F24EEA020E20FA04F354
:1089000001FA05F243EA020321FA04F001F0004102
:1089100021FA04F220EA020000EBD3705EEA430E73
:1089200008BF20EAD37070BD94F0000F0FD101F0A2
:108930000046400041EB010111F4801F08BF013CDB
:10894000F7D041EA060195F0000F18BF704703F019
:108950000046520043EB030313F4801F08BF013DA0
:10896000F7D043EA0603704794EA0C0F0CEA13555C
:1089700018BF95EA0C0F0CD050EA410618BF52EA16
:108980004306D1D181EA030101F000414FF000001C
:1089900070BD50EA410606BF1046194652EA43062A
:1089A00019D094EA0C0F02D150EA013613D195EA9E
:1089B0000C0F05D152EA03361CBF104619460AD1E6
:1089C00081EA030101F0004141F0FE4141F47001F0
:1089D0004FF0000070BD41F0FE4141F4780170BDE0
:1089E00070B54FF0FF0C4CF4E06C1CEA11541DBF45
:1089F0001CEA135594EA0C0F95EA0C0F00F0A7F847
:108A0000A4EB050481EA030E52EA03354FEA013173
:108A100000F088804FEA03334FF0805545EA131386
:108A200043EA12634FEA022245EA111545EA10654E
:108A30004FEA00260EF000419D4208BF964244F1E5
:108A4000FD0404F5407402D25B084FEA3202B61A04
:108A500065EB03055B084FEA32024FF480104FF4D8
:108A6000002CB6EB020E75EB030E22BFB61A75464C
:108A700040EA0C005B084FEA3202B6EB020E75EBDF
:108A8000030E22BFB61A754640EA5C005B084FEA47
:108A90003202B6EB020E75EB030E22BFB61A754614
:108AA00040EA9C005B084FEA3202B6EB020E75EB1F
:108AB000030E22BFB61A754640EADC0055EA060EE0
:108AC00018D04FEA051545EA16754FEA06164FEA23
:108AD000C30343EA52734FEAC2025FEA1C1CC0D1CF
:108AE00011F4801F0BD141EA00014FF000004FF05C
:108AF000004CB6E711F4801F04BF01430020B4F11D
:108B0000FD0C88BFBCF5E06F3FF6AFAEB5EB030CD4
:108B100004BFB6EB020C5FEA500C50F1000041EBD1
:108B2000045170BD0EF0004E4EEA113114EB5C049E
:108B3000C2BFD4EB0C0541EA045170BD41F4801171
:108B40004FF0000E013C90E645EA060E8DE60CEA79
:108B5000135594EA0C0F08BF95EA0C0F3FF43BAF96
:108B600094EA0C0F0AD150EA01347FF434AF95EA4D
:108B70000C0F7FF425AF104619462CE795EA0C0F31
:108B800006D152EA03353FF4FDAE1046194622E7FE
:108B900050EA410618BF52EA43067FF4C5AE50EAD8
:108BA00041047FF40DAF52EA43057FF4EBAE12E7C8
:108BB0004FF0FF3C06E000BF4FF0010C02E000BFA9
:108BC0004FF0010C4DF804CD4FEA410C7FEA6C5C8C
:108BD0004FEA430C18BF7FEA6C5C1BD001B050EA2F
:108BE000410C0CBF52EA430C91EA030F02BF90EA1A
:108BF000020F0020704710F1000F91EA030F58BFD9
:108C0000994208BF90422CBFD8176FEAE37040F03A
:108C1000010070474FEA410C7FEA6C5C02D150EAD8
:108C2000013C07D14FEA430C7FEA6C5CD6D152EA93
:108C3000033CD3D05DF8040B704700BF8446104658
:108C400062468C461946634600E000BF01B5FFF757
:108C5000B7FF002848BF10F1000F01BD4DF808ED27
:108C6000FFF7F4FF0CBF012000205DF808FB00BFF8
:108C70004DF808EDFFF7EAFF34BF012000205DF852
:108C800008FB00BF4DF808EDFFF7E0FF94BF01209F
:108C900000205DF808FB00BF4DF808EDFFF7CEFFA0
:108CA00094BF012000205DF808FB00BF4DF808EDDF
:108CB000FFF7C4FF34BF012000205DF808FB00BFB0
:108CC0004FEA410C7FEA6C5C02D150EA013C0AD1C8
:108CD0004FEA430C7FEA6C5C02D152EA033C02D1BA
:108CE0004FF0000070474FF0010070474FEA41021B
:108CF00012F5001215D211D56FF47873B3EB6252EE
:108D000012D94FEAC12343F0004343EA505311F014
:108D1000004F23FA02F018BF404270474FF00000A6
:108D2000704750EA013005D111F0004008BF6FF0E4
:108D3000004070474FF00000704700BF4FEA41020B
:108D4000B2F1E04324BFB3F5001CDCF1FE5C0DD9A9
:108D500001F0004C4FEAC0024CEA5070B2F1004FF3
:108D600040EB830008BF20F00100704711F0804FF6
:108D700021D113F13872BCBF01F00040704741F4BB
:108D800080114FEA5252C2F11802C2F1200C10FABF
:108D90000CF320FA02F018BF40F001004FEAC123A3
:108DA0004FEAD32303FA0CFC40EA0C0023FA02F347
:108DB0004FEA4303CCE77FEA625307D150EA01331D
:108DC0001EBF4FF0FE4040F44000704701F00040ED
:108DD00040F0FE4040F40000704700BF80F00040CB
:108DE00002E000BF81F0004142001FBF5FEA410383
:108DF00092EA030F7FEA226C7FEA236C6AD04FEA83
:108E00001262D2EB1363C1BFD218414048404140C7
:108E1000B8BF5B42192B88BF704710F0004F40F479
:108E2000000020F07F4018BF404211F0004F41F495
:108E3000000121F07F4118BF494292EA030F3FD061
:108E4000A2F1010241FA03FC10EB0C00C3F1200374
:108E500001FA03F100F0004302D5494260EB400003
:108E6000B0F5000F13D3B0F1807F06D340084FEA6E
:108E7000310102F10102FE2A51D2B1F1004F40EB63
:108E8000C25008BF20F0010040EA030070474900CB
:108E900040EB000010F4000FA2F10102EDD1B0FA96
:108EA00080FCACF1080CB2EB0C0200FA0CF0AABF8B
:108EB00000EBC25052421843BCBFD0401843704729
:108EC00092F0000F81F4000106BF80F4000001322F
:108ED000013BB5E74FEA41037FEA226C18BF7FEA06
:108EE000236C21D092EA030F04D092F0000F08BF48
:108EF0000846704790EA010F1CBF0020704712F02F
:108F00007F4F04D1400028BF40F00040704712F16D
:108F100000723CBF00F50000704700F0004343F0D2
:108F2000FE4040F4000070477FEA226216BF084608
:108F30007FEA23630146420206BF5FEA412390EACB
:108F4000010F40F4800070474FF0000304E000BFC1
:108F500010F0004348BF40425FEA000C08BF704772
:108F600043F0964301464FF000001CE050EA010236
:108F700008BF70474FF000030AE000BF50EA01024B
:108F800008BF704711F0004302D5404261EB410138
:108F90005FEA010C02BF84460146002043F0B6435D
:108FA00008BFA3F18053A3F50003BCFA8CF2083A82
:108FB000A3EBC25310DB01FA02FC634400FA02FC8B
:108FC000C2F12002BCF1004F20FA02F243EB020092
:108FD00008BF20F00100704702F1200201FA02FCF4
:108FE000C2F1200250EA4C0021FA02F243EB0200E7
:108FF00008BF20EADC7070477BB972B90029BEBF98
:1090000000204FF0004106E008BF00281CBF6FF0B1
:1090100000414FF0FF3000F0F3B9ADF1080C6DE9FD
:1090200004CE002909DB002B1ADB00F083F8DDF801
:1090300004E0DDE9022304B07047404261EB4101E6
:10904000002B1BDB00F076F8DDF804E0DDE90223FD
:1090500004B0404261EB4101524263EB430370476D
:10906000524263EB430300F065F8DDF804E0DDE90C
:10907000022304B0404261EB41017047524263EB6E
:10908000430300F057F8DDF804E0DDE9022304B003
:10909000524263EB4303704753B94AB9002908BFF2
:1090A00000281CBF4FF0FF314FF0FF3000F0A8B98F
:1090B000ADF1080C6DE904CE00F03CF8DDF804E0F9
:1090C000DDE9022304B0704707EE900AF5EEC07A9E
:1090D000F1EE10FA01D400F009B808B580F00040B4
:1090E00000F004F8404261EB410108BDD0B5FFF744
:1090F000F5FA00220D4B06460F46FFF747FB00F03E
:1091000081F90446FFF7C8FA0022094BFFF73EFB3E
:1091100002460B4630463946FFF780F900F072F9F7
:109120000022234610431946D0BD00BF0000F03D89
:109130000000F0412DE9F047089E04468846002BC8
:109140004BD18A42154667D9B2FA82F24AB1C2F1CE
:10915000200701FA02F320FA07F7954047EA0308CF
:1091600094404FEA154E230CB8FBFEF71FFA85FC1E
:109170000EFB178843EA084307FB0CF1994209D913
:10918000EB1807F1FF3080F01B81994240F2188103
:10919000023F2B445B1AA4B2B3FBFEF00EFB10336C
:1091A00044EA034400FB0CFCA44509D92C1900F146
:1091B000FF3380F00781A44540F2048102382C443B
:1091C00040EA0740A4EB0C0400271EB1D440002362
:1091D000C6E900433946BDE8F0878B4209D9002E25
:1091E00000F0EB800027C6E9000138463946BDE8AB
:1091F000F087B3FA83F7002F47D18B4202D3824224
:1092000000F2FA80841A61EB030301209846002ED5
:10921000E0D0C6E90048DDE702B9FFDEB2FA82F22B
:10922000002A40F08F80491B4FEA154E1FFA85F83F
:109230000127B1FBFEFC230C0EFB1C1143EA01438A
:1092400008FB0CF1994207D9EB180CF1FF3002D260
:10925000994200F2CD808446591AA3B2B1FBFEF0C8
:109260000EFB101443EA044408FB00F8A04507D99C
:109270002C1900F1FF3302D2A04500F2B680184647
:10928000A4EB080440EA0C409FE7C7F1200CBB4068
:1092900022FA0CFE4EEA030E01FA07F420FA0CF54E
:1092A00021FA0CF34FEA1E482543B3FBF8F92C0CC6
:1092B00008FB19331FFA8EFA44EA034309FB0AF448
:1092C0009C4202FA07F200FA07F10BD91EEB0303E6
:1092D00009F1FF3080F087809C4240F28480A9F140
:1092E000020973441B1BADB2B3FBF8F008FB10334B
:1092F00045EA034400FB0AFAA24508D91EEB040420
:1093000000F1FF336BD2A24569D90238744440EAB8
:109310000940A0FB0289A4EB0A044C45C2464B4617
:1093200054D351D0002E69D0B1EB0A0564EB03048D
:1093300004FA0CFCFD40FC404CEA0505C6E900546B
:10934000002747E7C2F1200320FA03F7954001FA0E
:1093500002F021FA03F34FEA154E3843010CB3FB38
:10936000FEF71FFA85F80EFB173341EA034107FBAE
:1093700008F38B4204FA02F407D9691807F1FF3C9D
:109380002FD28B422DD9023F2944CB1A81B2B3FB95
:10939000FEF00EFB103341EA034100FB08F38B4261
:1093A00007D9691800F1FF3C17D28B4215D9023852
:1093B0002944C91A40EA07473BE73746304609E7E0
:1093C0000746E7E61846FBE64145ABD2B8EB020A92
:1093D00069EB0E0201381346A4E76046E9E7184638
:1093E00095E76746D1E781467CE702382C4447E79A
:1093F000ACF1020C2B442FE7384608E73746E9E684
:10940000704700BF4A0011D212F5001211D20DD5DB
:109410006FF47873B3EB62520ED44FEAC12343F07A
:10942000004343EA505323FA02F070474FF0000024
:10943000704750EA013002D14FF0FF3070474FF0D3
:1094400000007047844641EA000313F003036DD126
:10945000403A41D351F8043B40F8043B51F8043BF7
:1094600040F8043B51F8043B40F8043B51F8043BFE
:1094700040F8043B51F8043B40F8043B51F8043BEE
:1094800040F8043B51F8043B40F8043B51F8043BDE
:1094900040F8043B51F8043B40F8043B51F8043BCE
:1094A00040F8043B51F8043B40F8043B51F8043BBE
:1094B00040F8043B51F8043B40F8043B51F8043BAE
:1094C00040F8043B51F8043B40F8043B51F8043B9E
:1094D00040F8043B403ABDD2303211D351F8043B3E
:1094E00040F8043B51F8043B40F8043B51F8043B7E
:1094F00040F8043B51F8043B40F8043B103AEDD2ED
:109500000C3205D351F8043B40F8043B043AF9D23D
:10951000043208D0D2071CBF11F8013B00F8013B10
:1095200001D30B8803806046704700BF082A13D31D
:109530008B078DD010F003038AD0C3F10403D21A35
:10954000DB071CBF11F8013B00F8013B80D331F869
:10955000023B20F8023B7BE7043AD9D3013A11F8E9
:10956000013B00F8013BF9D20B7803704B78437054
:109570008B78837060467047000000000000000098
:10958000A2EB0300704700BF02780B78012A28BFC6
:109590009A42F5D16DE9044540EA0104CDE902673C
:1095A0006FF0000C4FEA447212B380EA010414F029
:1095B000070F6AD100F0070420F0070004F003054C
:1095C00021F007014FEAC505F0E8042314F0040F69
:1095D000F1E804670CFA05F462EA040266EA04069C
:1095E0000AD063EA0403624667EA0407664603E0BA
:1095F000F0E80423F1E8046782FA4CF582EA0604F5
:10960000A4FA8CF46CBB83FA4CF583EA0705A5FA3F
:109610008CF595B950E9022351E9026782FA4CF5BD
:1096200082EA0604A4FA8CF483FA4CF583EA07056F
:10963000A5FA8CF52543DBD09CB92DBAB5FA85F493
:1096400024F0070427FA04F1DDE9026723FA04F3A2
:1096500003F0FF0001F0FF01FDE80445A0EB01006D
:10966000704724BAB4FA84F424F0070426FA04F10B
:10967000DDE9026722FA04F202F0FF0001F0FF01C7
:10968000FDE80445A0EB0100704714F0030F3CD146
:1096900010F0030428D150F8082B51F8083B82FA47
:1096A0004CF582EA0305A5FA8CF55DB950F8042C57
:1096B00051F8043C82FA4CF582EA0305A5FA8CF5D0
:1096C000002DE8D02DBAB5FA85F424F0070423FA6A
:1096D00004F122FA04F202F0FF0001F0FF01FDE8BC
:1096E0000445A0EB010070474FEAC40420F00300DA
:1096F00050F8082B21F0030151F8083B0CFA04F450
:1097000062EA040263EA0403C9E710F003041AD012
:10971000A1EB040120F00300E40750F8042B06D06D
:109720000FD28B785FFAA2F4E41A06D12BB1CB7872
:109730005FFAB2F4E41A00D11BB920465DF8104B71
:10974000704701F1040150F8042BCC0721F003010C
:1097500051F8043B48D824D222F07F4482FA4CF5D9
:1097600094EA1325A5FA8CF50AD165B951F8043BA2
:1097700084EA0204B4EB036F0ED150F8042BEBE73C
:109780004FEA132355E035F07F454DD10878FDE8C9
:109790000445C0F1000070474FEA126203F0FF0376
:1097A00047E002EA1C4482FA4CF594EA1345A5FA14
:1097B0008CF50AD165B951F8043B84EA0204B4EB94
:1097C000034F0CD150F8042BEBE74FEA134330E082
:1097D00015EA1C4528D10B884FEA124229E04FEACE
:1097E000124203EA1C4324E002F0FF0482FA4CF523
:1097F00094EA1365A5FA8CF50AD165B951F8043BD2
:1098000084EA0204B4EB032F09D150F8042BEBE7F0
:109810004FEA13630DE015F0FF0F05D10B684FEA17
:10982000122223F07F4304E04FF00000FDE80445DE
:10983000704712BA1BBA82FA4CF482EA0304A4FA03
:109840008CF5B5FA85F402FA04F203FA04F34FEA50
:109850001260FDE80445A0EB1360704700000000B3
:1098600000000000000000000000000000000000F8
:1098700000000000000000000000000000000000E8
:1098800090F800F06DE9024520F007016FF0000C40
:1098900010F0070491F820F040F049804FF00004E8
:1098A0006FF00700D1E9002391F840F000F10800C3
:1098B00082FA4CF2A4FA8CF283FA4CF3A2FA8CF3FB
:1098C0004BBBD1E9022382FA4CF200F10800A4FA62
:1098D0008CF283FA4CF3A2FA8CF3E3B9D1E90423B6
:1098E00082FA4CF200F10800A4FA8CF283FA4CF3ED
:1098F000A2FA8CF37BB9D1E9062301F1200182FAA7
:109900004CF200F10800A4FA8CF283FA4CF3A2FAAC
:109910008CF3002BC6D0002A04BF04301A4612BABA
:10992000B2FA82F2FDE8024500EBD2007047D1E9BD
:10993000002304F00305C4F100004FEAC50514F04C
:10994000040F91F840F00CFA05F562EA05021CBF1D
:1099500063EA050362464FF00004A9E70000000037
:1099600001F0FF01102A2BDB10F0070F08D010F8D0
:10997000013B013A8B422DD010F0070F42B3F6D1D4
:10998000F0B441EA012141EA014122F007047FF0ED
:1099900000070023F0E80256083C85EA010586EA44
:1099A000010685FA47F5A3FA87F586FA47F6A5FA80
:1099B00087F68EB9EED1F0BC01F0FF0102F007028C
:1099C00032B110F8013B013A83EA010313B1F8D137
:1099D0000020704701387047002D06BF3546033818
:1099E000073815F0010F07D1013015F4807F02BF51
:1099F000013015F4C03F0130F0BC0138704700BFA2
:109A0000704700BF000000000000000000000000E0
:109A1000704700BF000000000000000000000000D0
:109A2000FEE700BF00000000000000000000000092
:109A3000F0B4144E144D154C154B164906F1700C2C
:109A400000279C4211D904391A4651F8040F42F8F4
:109A5000040B9442F9D8DA43144424F00304043488
:109A600023449D4203D943F8047B9D42FBD86645BD
:109A700005D0D6E90413D6E906451036E1E7F0BC77
:109A8000704700BF5014040818B8012018B801200E
:109A900018B801206C1B0508000000000000000041
:109AA000FEE700BF00000000000000000000000012
:109AB000F8B51C4C1C4F1D4E002500F091F900F02C
:109AC0003FF9C4E90C5500F023FD00F049FE00F019
:109AD0008FFE04F138008022154900F0F1FA154B91
:109AE00001220277D968144AA0614FF6FF000140B5
:109AF0000A43DA60FA6842F08072FA603268102035
:109B000042F0010220213260D87783F8221000F061
:109B10005FF885F3118862B60848BDE8F84000F0A8
:109B20002FBB00BF902A0020F0ED00E0001000E005
:109B30005415040800ED00E00003FA05EC140408D5
:109B400008B572B6034B0449D862D12228F058FFF9
:109B5000FEE700BF902A0020D01404080000000097
:109B60002DE9F843164D00F0CBF8AA69D37F0BB16D
:109B7000013BD37700F0C4F8124FAB6AEC690133B4
:109B8000BC42AB6219D0A668013EA660AEB94FF0E8
:109B900020092368D4F80C80E6605F60EB6100F078
:109BA00067F886F311882069C04789F3118800F0AF
:109BB00047F8EC69A368002BEBD0BDE8F88300BF41
:109BC000902A0020AC2A00200000000000000000C5
:109BD000044B1A6B0AB95B6B13B10348FFF7B0BFB4
:109BE000704700BF902A0020041504080000000000
:109BF00010B5054C236B0BB9636B13B10348FFF72A
:109C00009FFF0123636310BD902A00201C150408E8
:109C100010B5074C236B2BB9636B002B02DD0023BF
:109C2000636310BD0348FFF78BFF0023636310BD20
:109C3000902A00202C1504080000000000000000FD
:109C400010B5064C236B002B01DD636B13B1044888
:109C5000FFF776FF0123636310BD00BF902A002049
:109C600024150408000000000000000000000000AF
:109C700010B5084C236B002B05DD636B002B02DD58
:109C80000023636310BD0448FFF75AFF002363639A
:109C900010BD00BF902A0020341504080000000009
:109CA00010B5202383F31188074C236B002B01DBB5
:109CB000626B1AB10548FFF743FF236B013323633F
:109CC000002383F3118810BD902A00200C1504088E
:109CD00010B5202383F31188074C236B002B01DD83
:109CE000626B1AB10548FFF72BFF236B013B23631F
:109CF000002383F3118810BD902A00201415040856
:109D0000054B1A6B002A03DB5B6B002B00DD7047F1
:109D10000248FFF715BF00BF902A00203C15040839
:109D2000044B1A6B1AB95B6B002B00DD70470248BD
:109D3000FFF706BF902A0020441504080000000029
:109D4000054B4FF0FF30002103F11C02586299626D
:109D5000C3E90722704700BF902A002000000000DE
:109D6000F8B5054616461F460C46FFF7C9FF0C48D6
:109D70002F61C369EE609A68944204D91B68A41AE3
:109D80009A68A242FAD35A68C5E9003215605D604C
:109D9000AC6099684FF0FF32091B99604262F8BDD0
:109DA000902A0020000000000000000000000000D9
:109DB00038B50446FFF7A4FF2368A5689A68616870
:109DC00005482A449A600B60256800224FF0FF3353
:109DD0006960E260436238BD902A00200000000004
:109DE000034B0022C3E90033C3E904339A60704790
:109DF000902A002000000000000000000000000089
:109E000010B50446FFF77CFF0022A168064B2277BD
:109E10001B689A688A42FBD25A682046C4E900321D
:109E200014605C6010BD00BF902A0020000000009C
:109E300038B50446202383F31188FFF701FF237F01
:109E4000072B10D8DFE803F0150F0F1B0A040F0AC9
:109E5000256AFFF755FFAB680133AB60D4E90023F7
:109E60001A60226853604FF0FF3323622046FFF7E9
:109E7000C7FFFFF7FDFE002383F3118838BD236A77
:109E800000221A604FF0FF3323622046FFF7B8FF2D
:109E9000EFE700BF0000000000000000000000002D
:109EA00070B50A4CA5690646FFF73AFF23682E777E
:109EB0001422EA771A682260012654601E77294628
:109EC000A3611846BDE87040FEF786BA902A0020CC
:109ED00070B50D4686B00646FFF722FF6B1C14D006
:109EE0000E4C0F4AA369294601A8FFF739FF3046F7
:109EF000FFF7D6FFFFF704FF049B13B101A8FFF79C
:109F000057FFA369186A06B070BD044C3046FFF7CE
:109F1000C7FFA369186A06B070BD00BF902A002071
:109F2000319E00080000000000000000000000005A
:109F3000F8B5144E0546B4690F46FFF7F1FEA36865
:109F4000AA682F629A4217D9FFF7DAFE0023A168A8
:109F5000237733461B689A688A42FBD25A6862604C
:109F60000120236014605C60287721462846B56193
:109F7000BDE8F840FEF730BA2846BDE8F840FFF7E4
:109F80003FBF00BF902A002000000000000000003A
:109F9000084A93691168DA7F88689B6822B99842F9
