:020000040800F2
:1000000000100020D1030008D3030008D303000828
:10001000D3030008D3030008D3030008D303000868
:10002000D3030008D3030008D303000811280008F5
:10003000D3030008D3030008D30300084155000888
:10004000D3030008D3030008D3030008D303000838
:10005000D3030008D303000871390008C139000830
:10006000213A0008813A0008E13A0008F14A000804
:10007000214B0008614B0008A14B0008E14B000830
:10008000114C0008514C00088141000851470008FC
:100090007147000891470008B1470008413B00083C
:1000A000015B0008915A0008D3030008B15A000808
:1000B000C15A0008E15A0008315D0008D303000866
:1000C000D3030008D3030008D3030008D3030008B8
:1000D000D3030008D3030008D3030008D3030008A8
:1000E000613C0008D3030008D3030008D3030008D1
:1000F000515D0008D3030008715D0008914C0008B1
:10010000D3030008D303000891550008D303000867
:10011000215F0008D3030008D3030008D3030008BD
:10012000D14C0008014D0008414D0008814D0008E8
:10013000C14D0008D3030008D3030008D1470008CD
:10014000F14700081148000831480008D3030008AF
:10015000F14D0008314E0008714E0008D30300082D
:10016000D3030008D3030008D3030008D303000817
:10017000D3030008D3030008D3030008D303000807
:10018000D3030008D3030008D3030008D3030008F7
:10019000D3030008D3030008D3030008D3030008E7
:1001A000D3030008D3030008D3030008D3030008D7
:1001B000D3030008D3030008D3030008D3030008C7
:1001C000D3030008D3030008D3030008D3030008B7
:1001D000D3030008D3030008D3030008D3030008A7
:1001E000B1A60008A1AC000891BC000821C000081D
:1001F000E1C6000811D1000831FD0008D116010840
:1002000001180108611B0108B1200108012B010838
:10021000F1420108814B0108716E0108C1780108A3
:10022000E18F0108A19C010881D7010891DA01083A
:10023000B1DC0108A1E0010881EC0108E1F6010848
:10024000C106020801120208F1130208E11F0208A8
:100250003132020891370208215202084156020841
:10026000B16302081172020881720208C198020883
:10027000819D020861A6020881AD020811B9020839
:1002800001BF0208E1C9020811CB020861CD0208D2
:1002900061D00208E1D90208A1040308611A030829
:0802A00031370308113903088E
:1002B00072B6394880F30888384880F3098838488E
:1002C0004EF60851CEF20001086040F20000CCF278
:1002D00000004EF63471CEF200010860BFF34F8F7C
:1002E000BFF36F8F40F20000C0F2F0004EF688516D
:1002F000CEF200010860BFF34F8FBFF36F8F4FF056
:100300000000E1EE100A4EF63C71CEF200010860EA
:10031000062080F31488BFF36F8F01F071FB05F0A6
:10032000BFFF4FF055301F491B4A91423CBF41F877
:10033000040BFAE71C49194A91423CBF41F8040BEF
:10034000FAE71A491A4A1B4B9A423EBF51F8040B6E
:1003500042F8040BF8E700201749184A91423CBFC5
:1003600041F8040BFAE701F063FB01F051FB144C78
:10037000144DAC4203DA54F8041B8847F9E733F014
:10038000CFFA114C114DAC4203DA54F8041B8847E4
:10039000F9E701F045BB0000001000200016002026
:1003A000000000080000002000100020F88304086E
:1003B000001600207C2200208022002010B801209E
:1003C000E0010008A8020008A8020008A80200082E
:1003D0006EE700F000F8FEE72DE9F04F2DED108AF2
:1003E000C1F80CD0C3689D46BDEC108ABDE8F08F03
:1003F00001F00EFC002383F311882846A04700205B
:1004000001F05EFF01F0F4FB01F01AFE01F000FCC8
:1004100000DFFEE781F0004102E000BF83F000430F
:1004200030B54FEA41044FEA430594EA050F08BF8F
:1004300090EA020F1FBF54EA000C55EA020C7FEA53
:10044000645C7FEA655C00F0E2804FEA5454D4EBD0
:100450005555B8BF6D420CDD2C4480EA020281EA9A
:10046000030382EA000083EA010180EA020281EAD2
:100470000303362D88BF30BD11F0004F4FEA013124
:100480004FF4801C4CEA113102D0404261EB410133
:1004900013F0004F4FEA03334CEA133302D05242B9
:1004A00063EB430394EA050F00F0A780A4F1010475
:1004B000D5F1200E0DDB02FA0EFC22FA05F28018AF
:1004C00041F1000103FA0EF2801843FA05F3594195
:1004D0000EE0A5F120050EF1200E012A03FA0EFC14
:1004E00028BF4CF0020C43FA05F3C01851EBE3713E
:1004F00001F0004507D54FF0000EDCF1000C7EEB5B
:1005000000006EEB0101B1F5801F1BD3B1F5001F98
:100510000CD349085FEA30004FEA3C0C04F10104B7
:100520004FEA445212F5800F80F09A80BCF1004FE0
:1005300008BF5FEA500C50F1000041EB045141EA62
:10054000050130BD5FEA4C0C404141EB010111F463
:10055000801FA4F10104E9D191F0000F04BF01460E
:100560000020B1FA81F308BF2033A3F10B03B3F1EC
:1005700020020CDA0C3208DD02F1140CC2F10C027C
:1005800001FA0CF021FA02F10CE002F11402D8BFDA
:10059000C2F1200C01FA02F120FA0CFCDCBF41EAA6
:1005A0000C019040E41AA2BF01EB0451294330BD75
:1005B0006FEA04041F3C1CDA0C340EDC04F1140452
:1005C000C4F1200220FA04F001FA02F340EA030029
:1005D00021FA04F345EA030130BDC4F10C04C4F16F
:1005E000200220FA02F001FA04F340EA030029464F
:1005F00030BD21FA04F0294630BD94F0000F83F499
:10060000801306BF81F480110134013D4EE77FEA7B
:10061000645C18BF7FEA655C29D094EA050F08BFC7
:1006200090EA020F05D054EA000C04BF19461046A8
:1006300030BD91EA030F1EBF0021002030BD5FEAEC
:10064000545C05D14000494128BF41F0004130BD14
:1006500014F580043CBF01F5801130BD01F0004568
:1006600045F0FE4141F470014FF0000030BD7FEADB
:10067000645C1ABF194610467FEA655C1CBF0B46D6
:10068000024650EA013406BF52EA033591EA030FED
:1006900041F4002130BD00BF90F0000F04BF0021E5
:1006A000704730B54FF4806404F132044FF0000518
:1006B0004FF0000150E700BF90F0000F04BF002191
:1006C000704730B54FF4806404F1320410F00045F7
:1006D00048BF40424FF000013EE700BF42004FEAF2
:1006E000E2014FEA31014FEA02701FBF12F07F436F
:1006F00093F07F4F81F06051704732F07F4208BF26
:10070000704793F07F4F04BF41F40021704730B52C
:100710004FF4607401F0004521F000411CE700BF78
:1007200050EA010208BF704730B54FF000050AE0FB
:1007300050EA010208BF704730B511F0004502D5FC
:10074000404261EB41014FF4806404F132045FEAFE
:10075000915C3FF4D8AE4FF003025FEADC0C18BFA7
:1007600003325FEADC0C18BF033202EBDC02C2F199
:10077000200300FA03FC20FA02F001FA03FE40EA2B
:100780000E0021FA02F11444BDE600BF70B54FF02F
:10079000FF0C4CF4E06C1CEA11541DBF1CEA13550D
:1007A00094EA0C0F95EA0C0F00F0DEF82C4481EA75
:1007B000030621EA4C5123EA4C5350EA013518BF95
:1007C00052EA033541F4801143F4801338D0A0FB82
:1007D00002CE4FF00005E1FB02E506F00042E0FB2F
:1007E00003E54FF00006E1FB03569CF0000F18BF35
:1007F0004EF0010EA4F1FF04B6F5007F64F54074DD
:1008000004D25FEA4E0E6D4146EB060642EAC6216F
:1008100041EA55514FEAC52040EA5E504FEACE2EDC
:10082000B4F1FD0C88BFBCF5E06F1ED8BEF1004FDF
:1008300008BF5FEA500E50F1000041EB045170BD5B
:1008400006F0004646EA010140EA020081EA03019F
:10085000B4EB5C04C2BFD4EB0C0541EA045170BD9B
:1008600041F480114FF0000E013C00F3AB8014F115
:10087000360FDEBF002001F0004170BDC4F100045E
:10088000203C35DA0C341BDC04F11404C4F12005DF
:1008900000FA05F320FA04F001FA05F240EA02003A
:1008A00001F0004221F0004110EBD37021FA04F670
:1008B00042EB06015EEA430E08BF20EAD37070BD2A
:1008C000C4F10C04C4F1200500FA04F320FA05F089
:1008D00001FA04F240EA020001F0004110EBD3708B
:1008E00041F100015EEA430E08BF20EAD37070BDFB
:1008F000C4F1200500FA05F24EEA020E20FA04F3D4
:1009000001FA05F243EA020321FA04F001F0004182
:1009100021FA04F220EA020000EBD3705EEA430EF3
:1009200008BF20EAD37070BD94F0000F0FD101F022
:100930000046400041EB010111F4801F08BF013C5B
:10094000F7D041EA060195F0000F18BF704703F099
:100950000046520043EB030313F4801F08BF013D20
:10096000F7D043EA0603704794EA0C0F0CEA1355DC
:1009700018BF95EA0C0F0CD050EA410618BF52EA96
:100980004306D1D181EA030101F000414FF000009C
:1009900070BD50EA410606BF1046194652EA4306AA
:1009A00019D094EA0C0F02D150EA013613D195EA1E
:1009B0000C0F05D152EA03361CBF104619460AD166
:1009C00081EA030101F0004141F0FE4141F4700170
:1009D0004FF0000070BD41F0FE4141F4780170BD60
:1009E00070B54FF0FF0C4CF4E06C1CEA11541DBFC5
:1009F0001CEA135594EA0C0F95EA0C0F00F0A7F8C7
:100A0000A4EB050481EA030E52EA03354FEA0131F3
:100A100000F088804FEA03334FF0805545EA131306
:100A200043EA12634FEA022245EA111545EA1065CE
:100A30004FEA00260EF000419D4208BF964244F165
:100A4000FD0404F5407402D25B084FEA3202B61A84
:100A500065EB03055B084FEA32024FF480104FF458
:100A6000002CB6EB020E75EB030E22BFB61A7546CC
:100A700040EA0C005B084FEA3202B6EB020E75EB5F
:100A8000030E22BFB61A754640EA5C005B084FEAC7
:100A90003202B6EB020E75EB030E22BFB61A754694
:100AA00040EA9C005B084FEA3202B6EB020E75EB9F
:100AB000030E22BFB61A754640EADC0055EA060E60
:100AC00018D04FEA051545EA16754FEA06164FEAA3
:100AD000C30343EA52734FEAC2025FEA1C1CC0D14F
:100AE00011F4801F0BD141EA00014FF000004FF0DC
:100AF000004CB6E711F4801F04BF01430020B4F19D
:100B0000FD0C88BFBCF5E06F3FF6AFAEB5EB030C54
:100B100004BFB6EB020C5FEA500C50F1000041EB51
:100B2000045170BD0EF0004E4EEA113114EB5C041E
:100B3000C2BFD4EB0C0541EA045170BD41F48011F1
:100B40004FF0000E013C90E645EA060E8DE60CEAF9
:100B5000135594EA0C0F08BF95EA0C0F3FF43BAF16
:100B600094EA0C0F0AD150EA01347FF434AF95EACD
:100B70000C0F7FF425AF104619462CE795EA0C0FB1
:100B800006D152EA03353FF4FDAE1046194622E77E
:100B900050EA410618BF52EA43067FF4C5AE50EA58
:100BA00041047FF40DAF52EA43057FF4EBAE12E748
:100BB0004FF0FF3C06E000BF4FF0010C02E000BF29
:100BC0004FF0010C4DF804CD4FEA410C7FEA6C5C0C
:100BD0004FEA430C18BF7FEA6C5C1BD001B050EAAF
:100BE000410C0CBF52EA430C91EA030F02BF90EA9A
:100BF000020F0020704710F1000F91EA030F58BF59
:100C0000994208BF90422CBFD8176FEAE37040F0BA
:100C1000010070474FEA410C7FEA6C5C02D150EA58
:100C2000013C07D14FEA430C7FEA6C5CD6D152EA13
:100C3000033CD3D05DF8040B704700BF84461046D8
:100C400062468C461946634600E000BF01B5FFF7D7
:100C5000B7FF002848BF10F1000F01BD4DF808EDA7
:100C6000FFF7F4FF0CBF012000205DF808FB00BF78
:100C70004DF808EDFFF7EAFF34BF012000205DF8D2
:100C800008FB00BF4DF808EDFFF7E0FF94BF01201F
:100C900000205DF808FB00BF4DF808EDFFF7CEFF20
:100CA00094BF012000205DF808FB00BF4DF808ED5F
:100CB000FFF7C4FF34BF012000205DF808FB00BF30
:100CC0004FEA410C7FEA6C5C02D150EA013C0AD148
:100CD0004FEA430C7FEA6C5C02D152EA033C02D13A
:100CE0004FF0000070474FF0010070474FEA41029B
:100CF00012F5001215D211D56FF47873B3EB62526E
:100D000012D94FEAC12343F0004343EA505311F094
:100D1000004F23FA02F018BF404270474FF0000026
:100D2000704750EA013005D111F0004008BF6FF064
:100D3000004070474FF00000704700BF4FEA41028B
:100D4000B2F1E04324BFB3F5001CDCF1FE5C0DD929
:100D500001F0004C4FEAC0024CEA5070B2F1004F73
:100D600040EB830008BF20F00100704711F0804F76
:100D700021D113F13872BCBF01F00040704741F43B
:100D800080114FEA5252C2F11802C2F1200C10FA3F
:100D90000CF320FA02F018BF40F001004FEAC12323
:100DA0004FEAD32303FA0CFC40EA0C0023FA02F3C7
:100DB0004FEA4303CCE77FEA625307D150EA01339D
:100DC0001EBF4FF0FE4040F44000704701F000406D
:100DD00040F0FE4040F40000704700BF80F000404B
:100DE00002E000BF81F0004142001FBF5FEA410303
:100DF00092EA030F7FEA226C7FEA236C6AD04FEA03
:100E00001262D2EB1363C1BFD21841404840414047
:100E1000B8BF5B42192B88BF704710F0004F40F4F9
:100E2000000020F07F4018BF404211F0004F41F415
:100E3000000121F07F4118BF494292EA030F3FD0E1
:100E4000A2F1010241FA03FC10EB0C00C3F12003F4
:100E500001FA03F100F0004302D5494260EB400083
:100E6000B0F5000F13D3B0F1807F06D340084FEAEE
:100E7000310102F10102FE2A51D2B1F1004F40EBE3
:100E8000C25008BF20F0010040EA0300704749004B
:100E900040EB000010F4000FA2F10102EDD1B0FA16
:100EA00080FCACF1080CB2EB0C0200FA0CF0AABF0B
:100EB00000EBC25052421843BCBFD04018437047A9
:100EC00092F0000F81F4000106BF80F400000132AF
:100ED000013BB5E74FEA41037FEA226C18BF7FEA86
:100EE000236C21D092EA030F04D092F0000F08BFC8
:100EF0000846704790EA010F1CBF0020704712F0AF
:100F00007F4F04D1400028BF40F00040704712F1ED
:100F100000723CBF00F50000704700F0004343F052
:100F2000FE4040F4000070477FEA226216BF084688
:100F30007FEA23630146420206BF5FEA412390EA4B
:100F4000010F40F4800070474FF0000304E000BF41
:100F500010F0004348BF40425FEA000C08BF7047F2
:100F600043F0964301464FF000001CE050EA0102B6
:100F700008BF70474FF000030AE000BF50EA0102CB
:100F800008BF704711F0004302D5404261EB4101B8
:100F90005FEA010C02BF84460146002043F0B643DD
:100FA00008BFA3F18053A3F50003BCFA8CF2083A02
:100FB000A3EBC25310DB01FA02FC634400FA02FC0B
:100FC000C2F12002BCF1004F20FA02F243EB020012
:100FD00008BF20F00100704702F1200201FA02FC74
:100FE000C2F1200250EA4C0021FA02F243EB020067
:100FF00008BF20EADC7070477BB972B90029BEBF18
:1010000000204FF0004106E008BF00281CBF6FF031
:1010100000414FF0FF3000F0F3B9ADF1080C6DE97D
:1010200004CE002909DB002B1ADB00F083F8DDF881
:1010300004E0DDE9022304B07047404261EB410166
:10104000002B1BDB00F076F8DDF804E0DDE902237D
:1010500004B0404261EB4101524263EB43037047ED
:10106000524263EB430300F065F8DDF804E0DDE98C
:10107000022304B0404261EB41017047524263EBEE
:10108000430300F057F8DDF804E0DDE9022304B083
:10109000524263EB4303704753B94AB9002908BF72
:1010A00000281CBF4FF0FF314FF0FF3000F0A8B90F
:1010B000ADF1080C6DE904CE00F03CF8DDF804E079
:1010C000DDE9022304B0704707EE900AF5EEC07A1E
:1010D000F1EE10FA01D400F009B808B580F0004034
:1010E00000F004F8404261EB410108BDD0B5FFF7C4
:1010F000F5FA00220D4B06460F46FFF747FB00F0BE
:1011000081F90446FFF7C8FA0022094BFFF73EFBBE
:1011100002460B4630463946FFF780F900F072F977
:101120000022234610431946D0BD00BF0000F03D09
:101130000000F0412DE9F047089E04468846002B48
:101140004BD18A42154667D9B2FA82F24AB1C2F14E
:10115000200701FA02F320FA07F7954047EA03084F
:1011600094404FEA154E230CB8FBFEF71FFA85FC9E
:101170000EFB178843EA084307FB0CF1994209D993
:10118000EB1807F1FF3080F01B81994240F2188183
:10119000023F2B445B1AA4B2B3FBFEF00EFB1033EC
:1011A00044EA034400FB0CFCA44509D92C1900F1C6
:1011B000FF3380F00781A44540F2048102382C44BB
:1011C00040EA0740A4EB0C0400271EB1D4400023E2
:1011D000C6E900433946BDE8F0878B4209D9002EA5
:1011E00000F0EB800027C6E9000138463946BDE82B
:1011F000F087B3FA83F7002F47D18B4202D38242A4
:1012000000F2FA80841A61EB030301209846002E55
:10121000E0D0C6E90048DDE702B9FFDEB2FA82F2AB
:10122000002A40F08F80491B4FEA154E1FFA85F8BF
:101230000127B1FBFEFC230C0EFB1C1143EA01430A
:1012400008FB0CF1994207D9EB180CF1FF3002D2E0
:10125000994200F2CD808446591AA3B2B1FBFEF048
:101260000EFB101443EA044408FB00F8A04507D91C
:101270002C1900F1FF3302D2A04500F2B6801846C7
:10128000A4EB080440EA0C409FE7C7F1200CBB40E8
:1012900022FA0CFE4EEA030E01FA07F420FA0CF5CE
:1012A00021FA0CF34FEA1E482543B3FBF8F92C0C46
:1012B00008FB19331FFA8EFA44EA034309FB0AF4C8
:1012C0009C4202FA07F200FA07F10BD91EEB030366
:1012D00009F1FF3080F087809C4240F28480A9F1C0
:1012E000020973441B1BADB2B3FBF8F008FB1033CB
:1012F00045EA034400FB0AFAA24508D91EEB0404A0
:1013000000F1FF336BD2A24569D90238744440EA38
:101310000940A0FB0289A4EB0A044C45C2464B4697
:1013200054D351D0002E69D0B1EB0A0564EB03040D
:1013300004FA0CFCFD40FC404CEA0505C6E90054EB
:10134000002747E7C2F1200320FA03F7954001FA8E
:1013500002F021FA03F34FEA154E3843010CB3FBB8
:10136000FEF71FFA85F80EFB173341EA034107FB2E
:1013700008F38B4204FA02F407D9691807F1FF3C1D
:101380002FD28B422DD9023F2944CB1A81B2B3FB15
:10139000FEF00EFB103341EA034100FB08F38B42E1
:1013A00007D9691800F1FF3C17D28B4215D90238D2
:1013B0002944C91A40EA07473BE73746304609E760
:1013C0000746E7E61846FBE64145ABD2B8EB020A12
:1013D00069EB0E0201381346A4E76046E9E71846B8
:1013E00095E76746D1E781467CE702382C4447E71A
:1013F000ACF1020C2B442FE7384608E73746E9E604
:10140000704700BF4A0011D212F5001211D20DD55B
:101410006FF47873B3EB62520ED44FEAC12343F0FA
:10142000004343EA505323FA02F070474FF00000A4
:10143000704750EA013002D14FF0FF3070474FF053
:1014400000007047844641EA000313F003036DD1A6
:10145000403A41D351F8043B40F8043B51F8043B77
:1014600040F8043B51F8043B40F8043B51F8043B7E
:1014700040F8043B51F8043B40F8043B51F8043B6E
:1014800040F8043B51F8043B40F8043B51F8043B5E
:1014900040F8043B51F8043B40F8043B51F8043B4E
:1014A00040F8043B51F8043B40F8043B51F8043B3E
:1014B00040F8043B51F8043B40F8043B51F8043B2E
:1014C00040F8043B51F8043B40F8043B51F8043B1E
:1014D00040F8043B403ABDD2303211D351F8043BBE
:1014E00040F8043B51F8043B40F8043B51F8043BFE
:1014F00040F8043B51F8043B40F8043B103AEDD26D
:101500000C3205D351F8043B40F8043B043AF9D2BD
:10151000043208D0D2071CBF11F8013B00F8013B90
:1015200001D30B8803806046704700BF082A13D39D
:101530008B078DD010F003038AD0C3F10403D21AB5
:10154000DB071CBF11F8013B00F8013B80D331F8E9
:10155000023B20F8023B7BE7043AD9D3013A11F869
:10156000013B00F8013BF9D20B7803704B784370D4
:101570008B78837060467047000000000000000018
:10158000A2EB0300704700BF02780B78012A28BF46
:101590009A42F5D16DE9044540EA0104CDE90267BC
:1015A0006FF0000C4FEA447212B380EA010414F0A9
:1015B000070F6AD100F0070420F0070004F00305CC
:1015C00021F007014FEAC505F0E8042314F0040FE9
:1015D000F1E804670CFA05F462EA040266EA04061C
:1015E0000AD063EA0403624667EA0407664603E03A
:1015F000F0E80423F1E8046782FA4CF582EA060475
:10160000A4FA8CF46CBB83FA4CF583EA0705A5FABF
:101610008CF595B950E9022351E9026782FA4CF53D
:1016200082EA0604A4FA8CF483FA4CF583EA0705EF
:10163000A5FA8CF52543DBD09CB92DBAB5FA85F413
:1016400024F0070427FA04F1DDE9026723FA04F322
:1016500003F0FF0001F0FF01FDE80445A0EB0100ED
:10166000704724BAB4FA84F424F0070426FA04F18B
:10167000DDE9026722FA04F202F0FF0001F0FF0147
:10168000FDE80445A0EB0100704714F0030F3CD1C6
:1016900010F0030428D150F8082B51F8083B82FAC7
:1016A0004CF582EA0305A5FA8CF55DB950F8042CD7
:1016B00051F8043C82FA4CF582EA0305A5FA8CF550
:1016C000002DE8D02DBAB5FA85F424F0070423FAEA
:1016D00004F122FA04F202F0FF0001F0FF01FDE83C
:1016E0000445A0EB010070474FEAC40420F003005A
:1016F00050F8082B21F0030151F8083B0CFA04F4D0
:1017000062EA040263EA0403C9E710F003041AD092
:10171000A1EB040120F00300E40750F8042B06D0ED
:101720000FD28B785FFAA2F4E41A06D12BB1CB78F2
:101730005FFAB2F4E41A00D11BB920465DF8104BF1
:10174000704701F1040150F8042BCC0721F003018C
:1017500051F8043B48D824D222F07F4482FA4CF559
:1017600094EA1325A5FA8CF50AD165B951F8043B22
:1017700084EA0204B4EB036F0ED150F8042BEBE7BC
:101780004FEA132355E035F07F454DD10878FDE849
:101790000445C0F1000070474FEA126203F0FF03F6
:1017A00047E002EA1C4482FA4CF594EA1345A5FA94
:1017B0008CF50AD165B951F8043B84EA0204B4EB14
:1017C000034F0CD150F8042BEBE74FEA134330E002
:1017D00015EA1C4528D10B884FEA124229E04FEA4E
:1017E000124203EA1C4324E002F0FF0482FA4CF5A3
:1017F00094EA1365A5FA8CF50AD165B951F8043B52
:1018000084EA0204B4EB032F09D150F8042BEBE770
:101810004FEA13630DE015F0FF0F05D10B684FEA97
:10182000122223F07F4304E04FF00000FDE804455E
:10183000704712BA1BBA82FA4CF482EA0304A4FA83
:101840008CF5B5FA85F402FA04F203FA04F34FEAD0
:101850001260FDE80445A0EB136070470000000033
:101860000000000000000000000000000000000078
:101870000000000000000000000000000000000068
:1018800090F800F06DE9024520F007016FF0000CC0
:1018900010F0070491F820F040F049804FF0000468
:1018A0006FF00700D1E9002391F840F000F1080043
:1018B00082FA4CF2A4FA8CF283FA4CF3A2FA8CF37B
:1018C0004BBBD1E9022382FA4CF200F10800A4FAE2
:1018D0008CF283FA4CF3A2FA8CF3E3B9D1E9042336
:1018E00082FA4CF200F10800A4FA8CF283FA4CF36D
:1018F000A2FA8CF37BB9D1E9062301F1200182FA27
:101900004CF200F10800A4FA8CF283FA4CF3A2FA2C
:101910008CF3002BC6D0002A04BF04301A4612BA3A
:10192000B2FA82F2FDE8024500EBD2007047D1E93D
:10193000002304F00305C4F100004FEAC50514F0CC
:10194000040F91F840F00CFA05F562EA05021CBF9D
:1019500063EA050362464FF00004A9E700000000B7
:1019600001F0FF01102A2BDB10F0070F08D010F850
:10197000013B013A8B422DD010F0070F42B3F6D154
:10198000F0B441EA012141EA014122F007047FF06D
:1019900000070023F0E80256083C85EA010586EAC4
:1019A000010685FA47F5A3FA87F586FA47F6A5FA00
:1019B00087F68EB9EED1F0BC01F0FF0102F007020C
:1019C00032B110F8013B013A83EA010313B1F8D1B7
:1019D0000020704701387047002D06BF3546033898
:1019E000073815F0010F07D1013015F4807F02BFD1
:1019F000013015F4C03F0130F0BC0138704700BF22
:101A0000704700BF00000000000000000000000060
:101A1000704700BF00000000000000000000000050
:101A2000FEE700BF00000000000000000000000012
:101A3000F0B4144E144D154C154B164906F1700CAC
:101A400000279C4211D904391A4651F8040F42F874
:101A5000040B9442F9D8DA43144424F00304043408
:101A600023449D4203D943F8047B9D42FBD866453D
:101A700005D0D6E90413D6E906451036E1E7F0BCF7
:101A8000704700BF808B030810B8012010B80120F8
:101A900010B801207490040800000000000000004D
:101AA000FEE700BF00000000000000000000000092
:101AB000F8B51C4C1C4F1D4E002500F091F900F0AC
:101AC0003FF9C4E90C5500F023FD00F049FE00F099
:101AD0008FFE04F138008022154900F0F1FA154B11
:101AE00001220277D968144AA0614FF6FF00014035
:101AF0000A43DA60FA6842F08072FA6032681020B5
:101B000042F0010220213260D87783F8221000F0E1
:101B10005FF885F3118862B60848BDE8F84000F028
:101B20002FBB00BF902A0020F0ED00E0001000E085
:101B3000848C030800ED00E00003FA051C8C030808
:101B400008B572B6034B0449D862D12228F090FC44
:101B5000FEE700BF902A0020008C03080000000070
:101B60002DE9F843164D00F0CBF8AA69D37F0BB1ED
:101B7000013BD37700F0C4F8124FAB6AEC69013334
:101B8000BC42AB6219D0A668013EA660AEB94FF068
:101B900020092368D4F80C80E6605F60EB6100F0F8
:101BA00067F886F311882069C04789F3118800F02F
:101BB00047F8EC69A368002BEBD0BDE8F88300BFC1
:101BC000902A0020AC2A0020000000000000000045
:101BD000044B1A6B0AB95B6B13B10348FFF7B0BF34
:101BE000704700BF902A0020348C030800000000DA
:101BF00010B5054C236B0BB9636B13B10348FFF7AA
:101C00009FFF0123636310BD902A00204C8C0308C2
:101C100010B5074C236B2BB9636B002B02DD00233F
:101C2000636310BD0348FFF78BFF0023636310BDA0
:101C3000902A00205C8C03080000000000000000D7
:101C400010B5064C236B002B01DD636B13B1044808
:101C5000FFF776FF0123636310BD00BF902A0020C9
:101C6000548C030800000000000000000000000089
:101C700010B5084C236B002B05DD636B002B02DDD8
:101C80000023636310BD0448FFF75AFF002363631A
:101C900010BD00BF902A0020648C030800000000E3
:101CA00010B5202383F31188074C236B002B01DB35
:101CB000626B1AB10548FFF743FF236B01332363BF
:101CC000002383F3118810BD902A00203C8C030868
:101CD00010B5202383F31188074C236B002B01DD03
:101CE000626B1AB10548FFF72BFF236B013B23639F
:101CF000002383F3118810BD902A0020448C030830
:101D0000054B1A6B002A03DB5B6B002B00DD704771
:101D10000248FFF715BF00BF902A00206C8C030813
:101D2000044B1A6B1AB95B6B002B00DD704702483D
:101D3000FFF706BF902A0020748C03080000000003
:101D4000054B4FF0FF30002103F11C0258629962ED
:101D5000C3E90722704700BF902A0020000000005E
:101D6000F8B5054616461F460C46FFF7C9FF0C4856
:101D70002F61C369EE609A68944204D91B68A41A63
:101D80009A68A242FAD35A68C5E9003215605D60CC
:101D9000AC6099684FF0FF32091B99604262F8BD50
:101DA000902A002000000000000000000000000059
:101DB00038B50446FFF7A4FF2368A5689A686168F0
:101DC00005482A449A600B60256800224FF0FF33D3
:101DD0006960E260436238BD902A00200000000084
:101DE000034B0022C3E90033C3E904339A60704710
:101DF000902A002000000000000000000000000009
:101E000010B50446FFF77CFF0022A168064B22773D
:101E10001B689A688A42FBD25A682046C4E900329D
:101E200014605C6010BD00BF902A0020000000001C
:101E300038B50446202383F31188FFF701FF237F81
:101E4000072B10D8DFE803F0150F0F1B0A040F0A49
:101E5000256AFFF755FFAB680133AB60D4E9002377
:101E60001A60226853604FF0FF3323622046FFF769
:101E7000C7FFFFF7FDFE002383F3118838BD236AF7
:101E800000221A604FF0FF3323622046FFF7B8FFAD
:101E9000EFE700BF000000000000000000000000AD
:101EA00070B50A4CA5690646FFF73AFF23682E77FE
:101EB0001422EA771A682260012654601E772946A8
:101EC000A3611846BDE87040FEF786BA902A00204C
:101ED00070B50D4686B00646FFF722FF6B1C14D086
:101EE0000E4C0F4AA369294601A8FFF739FF304677
:101EF000FFF7D6FFFFF704FF049B13B101A8FFF71C
:101F000057FFA369186A06B070BD044C3046FFF74E
:101F1000C7FFA369186A06B070BD00BF902A0020F1
:101F2000311E00080000000000000000000000005A
:101F3000F8B5144E0546B4690F46FFF7F1FEA368E5
:101F4000AA682F629A4217D9FFF7DAFE0023A16828
:101F5000237733461B689A688A42FBD25A686260CC
:101F60000120236014605C60287721462846B56113
:101F7000BDE8F840FEF730BA2846BDE8F840FFF764
:101F80003FBF00BF902A00200000000000000000BA
:101F9000084A93691168DA7F88689B6822B9984279
:101FA00034BF002001207047984294BF00200120D8
:101FB000704700BF902A00200000000000000000D1
:101FC00038B50F4C2368A5691A6822600121546056
:101FD0001977A361FFF794FE0023A9682B772346A6
:101FE0001B689A688A42FBD85A68A0692B606A60AD
:101FF000294615605D60BDE83840FEF7EDB900BFC9
:10200000902A0020000000000000000000000000F6
:1020100008B5FFF785FEFFF773FE064B1A689B694C
:1020200092689B689A4200D808BDBDE80840FFF757
:10203000C7BF00BF902A0020000000000000000081
:1020400070B51B4D2B68AC691A682A605560DE7F3D
:10205000AB6101221A77AEB9FFF752FEA16826776D
:102060002B461B689A688A42FBD25A686260142128
:10207000236014605C60E177A8692146BDE8704088
:10208000FEF7AAB9FFF73CFE0023A16823772B4691
:102090001B689A688A42FBD85A68A869C4E900326A
:1020A000214614605C60BDE87040FEF795B900BF42
:1020B000902A002000000000000000000000000046
:1020C000F0B40B4C0B4F656982638260002681611E
:1020D00000F1280200F1240145610461C761C0E9F3
:1020E0000C6628616061C0E90912C262F0BC7047E9
:1020F000902A0020020001140000000000000000EF
:1021000070B50446FFF7FCFDD4E90416A368256802
:10211000E06843F86C1C022103F82C1C142103F81E
:10212000291C012103F82A1C124A43F8686C00217B
:1021300003F82B1C546943F8400C43F8100C43F887
:10214000305CA3F1AC000C4D43F83C0C43F84C5C04
:1021500043E90611A3F14800A3F12001A3F12405EE
:1021600043E90E242061506143E9095143F81C1CE6
:1021700070BD00BF902A0020F1030008000000009D
:1021800010B52023044683F31188FFF731FD204664
:10219000FFF7B6FF00210446FFF7CAFEFFF738FD40
:1021A000002383F31188204610BD00BF000000000B
:1021B0002DE9F843994604460D469046202383F3C3
:1021C0001188483D2C44184E184FFFF711FD089B0D
:1021D000716944F8203CA4F16402154BE260E361AC
:1021E00004F1240204F128030025124844F8249C39
:1021F000C4E90461C4F8088044F8047CA061C4F810
:102200003880C4E90C5520460C61C4E90923E36217
:1022100029467461FFF78CFEFFF7FAFC85F31188FD
:102220002046BDE8F88300BF902A0020F103000893
:10223000020001147C8C0308000000000000000074
:1022400010B52023044683F31188FFF7D1FCA37F48
:10225000013BA377E36903F0FF130F2B01BFD4E920
:1022600004231A6122695361FFF7D2FC002383F330
:10227000118810BD000000000000000000000000F8
:1022800038B50E4B9C69636A206204F12405AB42A9
:1022900007D01A6862621846FFF7B2FD636AAB4264
:1022A000F7D1A37F23B9D4E904231A6122695361CA
:1022B0000F20BDE83840FFF7F3BD00BF902A002093
:1022C00010B52023044683F31188FFF791FC2046C4
:1022D000BDE81040FFF7D4BF000000000000000080
:1022E00038B50446202383F31188FFF781FC237F50
:1022F0000F2B07D0094B626A9B6909201A60636241
:10230000FFF7CEFD256AFFF783FC002383F31188D6
:102310002046FFF795FF284638BD00BF902A0020D1
:1023200010B52023044683F31188FFF761FC637F17
:1023300043F004036377FFF76BFC002383F31188FA
:1023400010BD00BF00000000000000000000000001
:1023500010B52023044683F31188FFF749FC21467A
:102360000820FFF7B5FDFFF753FC002383F3118826
:1023700010BD00BF000000000000000000000000D1
:1023800038B504460D46202383F31188FFF730FC4F
:10239000084B996A2B1B0C1BA34203D9691A08200E
:1023A000FFF796FDFFF734FC002383F311882846DE
:1023B00038BD00BF902A002000000000000000008F
:1023C000054B02469B6921B1036003201A62FFF7A7
:1023D0007FBD4FF0FF307047902A002000000000C2
:1023E00003682BB10022026018461962FFF708BD8E
:1023F000704700BF00000000000000000000000067
:1024000038B504460D46202383F31188FFF7F0FB0F
:10241000206820B1002329462360FFF789FDFFF7DC
:10242000F7FB002383F3118838BD00BF00000000D4
:1024300069B1084B10B4024644689B690420C3E9A3
:102440000024236053605DF8044BFFF741BD4FF05B
:10245000FF307047902A00200000000000000000BC
:10246000026890420AD010B41468046003466360A6
:10247000104611625DF8044BFFF7C2BC704700BF05
:1024800038B5036898420BD004460D461A6822609E
:10249000184654601D62FFF7B3FC23689C42F5D1D7
:1024A00038BD00BF00000000000000000000000078
:1024B000014B5B6883607047001000E00000000083
:1024C0000E4B0F4A5B68C168F0B48468D66F4268EF
:1024D0001B1BD0E904459B1BE61845F100079342FE
:1024E000026888BF436001319342C0E90467C0E9D4
:1024F000023138BF0360F0BC704700BF001000E03D
:10250000902A0020000000000000000000000000F1
:1025100010B50C4C86B000234FF0FF310022684606
:10252000E367CDE9013303930023CDE90423009150
:10253000FFF7BEFF6846FFF7C3FF029BE36706B0E5
:1025400010BD00BF902A0020000000000000000025
:102550000023C0E900008360704700BF0000000056
:10256000F8B50546364B9C69FFF7DAFBA8680028EA
:102570003DD0A26883689A4206D9037F8260062B09
:102580003AD0072B15D043B32E462B4603E099686B
:10259000A268914229D31B689D42F8D17368062036
:1025A000C4E900631C6074602562BDE8F840FFF771
:1025B00077BCD0E900131960066A01684B603346A6
:1025C00002E09968914231D31B689E42F9D1736849
:1025D000C0E9006318607060D6E7D0E900231A6094
:1025E00002685360FFF70CFCCEE71E46D6E7636B2C
:1025F000C5E902436563F8BDD0E900131960066AB6
:10260000016837464B60334602E09968914214D323
:102610001B689E42F9D17B68A268C0E9007318600C
:102620007860B06883689342A7D3ADE71E467368AD
:10263000C0E9006318607060A6E71F46EBE700BFC3
:10264000902A0020000000000000000000000000B0
:1026500010B52023044683F31188FFF7C9FA2046FA
:10266000FFF77EFFFFF7D4FA002383F3118810BD34
:10267000F8B51D4B05469F69202383F31188FFF7AA
:10268000B7FAEB687B63FFF74BFB2B689D4222D0C8
:10269000D7E90D4664B1FFF743FB23689C4203D0A2
:1026A0009B689E4238BF1E46E468002CF3D12B681D
:1026B000596B1A68BE6018462A605560C5E9023138
:1026C0005D63FFF79DFBFFF7A3FCFFF7A1FA002373
:1026D00083F31188F8BD0023AB60FFF799FA00235C
:1026E00083F31188F8BD00BF902A0020000000008D
:1026F00038B504460D46FFF703FB216B237F2943C2
:102700000A2B21630CD00B2B00D038BD236A8B43DE
:10271000FBD1002323622046BDE83840FFF770BBA1
:10272000236A1942F5D1F0E7000000000000000024
:1027300070B506460D46FFF7E3FA3468A6420DD0A1
:10274000E3682B43E36015B123691D4203D0D4E94C
:102750000101FFF7CDFF2468A642F1D170BD00BF93
:10276000034A044B02F50061C3E90021704700BF32
:10277000182B0020102B002000000000000000009B
:10278000F8B50E4604461546FFF7BAFA094AD2E9EB
:1027900000737819013C30447142344401380840D8
:1027A000214001448B4203D38F4201D81160F8BD10
:1027B0000020F8BD102B00200000000000000000E9
:1027C00070B5202304460D46164683F31188FFF7A3
:1027D0000FFA324629462046FFF7D2FF0446FFF79C
:1027E00017FA002383F31188204670BD0000000013
:1027F000044B054A1A6003F10C000022C3E90122D0
:10280000FFF7A6BE18330020C12700080000000013
:10281000064A536823F001035360EFF309836833DA
:1028200083F30988002383F31188704730EF00E0B9
:10283000202383F31188124B5B6813F4006302D1E9
:1028400083F31188704710B5F1EE103AEFF3098465
:102850000C4B4FF08072DB6844F8083C44F84C2C79
:10286000A4F1680383F30988FFF792FB18B1064BC4
:1028700044F8503C10BD054B44F8503C10BD00BF1F
:1028800000ED00E030EF00E005040008100400084F
:1028900008B501F0B5FA02F0BBFB00F0F1F800F06A
:1028A00037F900F0E5F900F02BFA00F059FE00F0DE
:1028B0008FFE00F085FF00F0D3FC03F0A1FDBDE822
:1028C000084000F075BF00BF0000000000000000DD
:1028D000F8B5154682680669AA420B46816938BF79
:1028E0008568761AB54204461DD30AD818462A468A
:1028F000FEF7A8FDE368A361A3685B1BA3602846FD
:10290000F8BD32461846FEF79DFDAF1B3A463044EF
:10291000E168FEF797FDA368E2685B1B3A44A26199
:10292000A3602846F8BD18462A46FEF78BFDA3692A
:102930002B44A361A3685B1BA3602846F8BD00BFBE
:1029400030B4029C046200250A4485600261C0E93B
:102950000000C160C0E90511C36130BC704700BF11
:1029600038B504460D46FFF7CBF9D4E9053293425A
:1029700011D0A268591C0132A26061611D70D4E9B6
:1029800004329A4201D3E368636120460021FFF7D5
:1029900067FD002038BDA268002AEAD04FF0FF3062
:1029A00038BD00BF00000000000000000000000073
:1029B0002DE9F04F83B006460D46144601929B4622
:1029C000C7694FF0200888F31188FFF711F9C4B1E7
:1029D0004FF00009224629463046FFF779FF82462C
:1029E000D0B1304607B1B847FFF712F989F3118823
:1029F000A4EB0A04554488F31188FFF7F9F8002C7A
:102A0000E8D1DDF804A0FFF703F9002383F3118870
:102A1000504603B0BDE8F08F59463046FFF708FD39
:102A20000028D7D0019BA3EB040AECE700000000CC
:102A3000C3689B0F0CD0012B08D18368C28818048F
:102A400000F47C1010430130800270470020704772
:102A5000D0E9012340F6FC7000EA830040EA92705E
:102A6000C2F3C23202320130C3F303439040093B48
:102A700098407047000000000000000000000000C7
:102A800001F086BA00000000000000000000000015
:102A9000002301220270C0E90133C0E9033343611E
:102AA0001830FFF755BD00BF000000000000000017
:102AB00038B504460D46202383F31188FFF798F8B4
:102AC0002046656001F094FA02232370FFF7A0F816
:102AD000002383F3118838BD0000000000000000CF
:102AE000F8B504460D4617461E46FFF709F90320C0
:102AF0002070C4E9027625612046BDE8F84001F067
:102B0000CFBA00BF0000000000000000000000007D
:102B100001F09EBE00000000000000000000000068
:102B200030B40021012400F1180200F11C0300F16F
:102B300020050470416000F1240400F12801826145
:102B4000C36100F1080200F11003C0E9085481627A
:102B5000C0E90222C0E9043330BC70470000000025
:102B600038B504460D46202383F31188FFF740F85B
:102B7000022323702046656001F0AAFE0323237020
:102B8000FFF746F8002383F3118838BD00000000EA
:102B90002DE9F0411F4682B004460D4690462023A1
:102BA00083F31188FFF724F804F108062378042B37
:102BB0002946204602D001F0CBFE78B9394630468E
:102BC000FFF736FC0028F1D00190FFF721F8002331
:102BD00083F31188019802B0BDE8F0812046424697
:102BE000294601F0D5FEFFF713F8002080F3118885
:102BF00002B0BDE8F08100BF00000000000000004E
:102C00002DE9F0411F4682B004460D469046202330
:102C100083F31188FEF7ECFF04F110062378042BF0
:102C20002946204602D001F0EBFE78B939463046FD
:102C3000FFF7FEFB0028F1D00190FEF7E9FF00232B
:102C400083F31188019802B0BDE8F0812046424626
:102C5000294601F0F5FEFEF7DBFF002080F3118826
:102C600002B0BDE8F08100BF0000000000000000DD
:102C700002F0AEBC000000000000000000000000F8
:102C80000122002302704360704700BF0000000073
:102C900038B504460D46202383F31188FEF7A8FFBC
:102CA0002046656002F0A4FC02232370FEF7B0FF0B
:102CB000002383F3118838BD0000000000000000ED
:102CC00038B504460D46FFF71BF804232946237048
:102CD0002046BDE8384002F0CBBC00BF0000000039
:102CE00010B50446FFF70CF8022323702046BDE818
:102CF000104002F0D5BC00BF000000000000000042
:102D000002F0DEBC00000000000000000000000037
:102D10000122002302704360704700BF00000000E2
:102D200038B504460D46202383F31188FEF760FF73
:102D30002046656002F0F4FC02232370FEF768FF72
:102D4000002383F3118838BD00000000000000005C
:102D500038B50446202383F31188FEF749FF204647
:102D600002F0A6FD0025012323706560FEF750FFE9
:102D700085F3118838BD00BF00000000000000008E
:102D800010B52023044683F31188FEF731FF204657
:102D900002F0EEFD03232370FEF73AFF002383F3D6
:102DA000118810BD000000000000000000000000BD
:102DB00010B52023044683F31188FEF719FF20463F
:102DC00002F0E6FD02232370FEF722FF002383F3C7
:102DD000118810BD0000000000000000000000008D
:102DE00010B52023044683F31188FEF701FF204627
:102DF00002F0D6FDFEF70CFF002383F3118810BD0F
:102E000010B52023044683F31188FEF7F1FE204617
:102E100002F0E6FDFEF7FCFE002383F3118810BDEF
:102E20000379052B01D001207047836A4B604FF472
:102E300000730B60002070470000000000000000DD
:102E400030B5054683B009242B6801AA1868012112
:102E500000F08EFC9DF80400FF2801D1013CF3D165
:102E600003B030BD000000000000000000000000C2
:102E700030B5054683B0102401E0013C0DD02B682D
:102E800001AA1868012100F073FC9DF80430FF2BA3
:102E9000F3D103B030BDFFF75BFA2B6801AA1868C5
:102EA000012100F065FC9DF80430FF2B4FF001007C
:102EB000F1D103B030BD00BF0000000000000000F1
:102EC00070B5164682B005462C300C46FFF7D0FF91
:102ED000330A44F04001300E320C8DF803300023E9
:102EE000124C8DF800108DF801008DF802200DF1C4
:102EF00005000DF1010281EA430190428DF8046062
:102F0000635C06D012F8011B81EA43019042635CC6
:102F1000F8D1590041F00101EB6A8DF805101868ED
:102F20006A46062100F004FC02B070BD9C8C0308C8
:102F3000F8B50D46C16A0446174608681E4600F0FB
:102F400087FB3A4629462046FFF7BAFF04F12C00DA
:102F5000FFF776FFE16A054632460868042100F073
:102F600007FCE36A186800F08BFB2846F8BD00BF39
:102F7000C36A70B504460D461868164600F068FB33
:102F8000294632462046FFF79BFF04F12C00FFF74D
:102F900057FFE36A0546186800F072FB284670BDCB
:102FA00070B5C36A84B005460C461868164600F032
:102FB0004FFB284621460022FFF782FF05F12C0037
:102FC000FFF73EFF58BB42F2107401E0013C2DD0E8
:102FD000EB6A6A461868012100F0CAFB9DF80030D0
:102FE000FE2BF3D1EB6A6A461868102100F0C0FB93
:102FF0006B4606F10C00321F53F8041B09BA40F867
:1030000004198242F8D1EB6A0221186800F050FBE3
:10301000EB6A186800F034FB002004B070BDEB6A66
:10302000186800F02DFB012004B070BD0120F4E70A
:1030300070B5C36A032202710546002280F8302071
:1030400082B0D3E9000100F0D3FAEB6A10211868CE
:1030500000F02EFB0A2401E0FFF77AF90022114666
:103060002846FFF785FF01284FF00A000AD0013CEF
:10307000F2D1EB6A186800F0D3FA02232B71012019
:1030800002B070BD01AB4FF4D57208212846FFF79E
:103090004FFF052824D02E4E642405E0013C4FF05C
:1030A0000A00E6D0FFF754F9002237212846FFF73F
:1030B0005FFF0128F2D801AB324629212846FFF7ED
:1030C00037FF0028EAD101AB02463A212846FFF734
:1030D0002FFF9DF804305B0644BF012385F8303094
:1030E000642407E001284FF00A00C2D1013CC0D09F
:1030F000FFF72EF9002201212846FFF739FF0028AB
:10310000F0D1EB6A9968186800F072FA4FF4007217
:1031100010212846FFF72CFF0028AAD105F118043A
:10312000224609212846FFF73BFF0028A1D120466F
:10313000FFF77EFCA86200289BD005F108020A2157
:103140002846FFF72DFF002893D105232B7197E721
:10315000AA01004000000000000000000000000084
:1031600010B50368044682B0186800F071FA01E0F7
:10317000FFF7EEF8236801AA1868012100F0F8FAB9
:103180009DF80430FF2B4FF00100F1D1236818683F
:1031900000F076FA02B010BD000000000000000050
:1031A00070B50579052D01D0012070BD06460822B5
:1031B00056F82C3F027104469968186800F018FA16
:1031C0003046FFF7CDFF2571002070BD00000000E4
:1031D00038B50446202383F31188FEF709FD2379CF
:1031E000022B18D004232371FEF712FD002383F372
:1031F0001188254655F82C3F9968186800F0F8F9B1
:103200002846FFF7ADFFE36A186800F009FA0223C9
:103210002371002038BDFEF7FBFC002383F31188E7
:10322000002038BD00000000000000000000000089
:1032300038B50546044655F82C3F084A186807215A
:1032400000F076FA2846FFF7FBFDE36A186800F005
:1032500017FA05232371002038BD00BFC88D03086D
:10326000704700BF000000000000000000000000E8
:10327000044B0360012200230271C36280F83030E6
:10328000704700BF9C8D0308000000000000000094
:103290000223C162037170470000000000000000BB
:1032A00010B5C36A0446186800F0BAF90022012379
:1032B000E262237110BD00BF0000000000000000AA
:1032C00038B5C36A0446062202710D46186899682B
:1032D00000F08EF9E36A186800F0BAF994F830301B
:1032E00053B120462A461221FFF7EAFD04F12C00D3
:1032F000FFF7A6FD58B938BD20466A021221FFF734
:10330000DFFD04F12C00FFF79BFD0028F3D0E36AFA
:10331000186800F085F905232371012038BD00BF2E
:103320000379062B01D00120704770B50D46064683
:1033300042F2107401E0013C16D0F36A2A46186884
:10334000012100F015FA2B78FE2BF4D1F36A2A46FE
:1033500018684FF4007100F00BFAF36A0221186844
:1033600000F0A6F9002070BDF36A186800F088F933
:10337000F36A186800F054F905233371012070BD19
:1033800070B514461D460646FFF79AFF18B935B9C1
:103390003379062B0DD0012070BD013DF8D02146B8
:1033A0003046FFF7BDFF04F500740028F5D001207A
:1033B00070BD3046BDE87040FFF73ABF0000000026
:1033C0000379062B01D001207047FFF731BF00BF02
:1033D00038B5C36A0446072202710D461868996819
:1033E00000F006F9E36A186800F032F994F830301A
:1033F00053B120462A461921FFF762FD04F12C0043
:10340000FFF71EFD58B938BD20466A021921FFF7A3
:1034100057FD04F12C00FFF713FD0028F3D0E36AF9
:10342000186800F0FDF805232371012038BD00BFA6
:103430000379072B01D00120704730B5C36A194AC0
:10344000044683B018680D46022100F071F9E36A62
:103450002A4618684FF4007100F06AF9E36A022105
:10346000186800F025F9E36A01AA1868012100F044
:103470007FF99DF8043003F01F03052B0CD0E36A9D
:10348000186800F0FDF8E36A186800F0C9F8052331
:103490002371012003B030BD04F12C00FFF7E8FCDC
:1034A0000020F7E7C08D03080000000000000000C6
:1034B000F8B514461D460646FFF78AFF20B90746B1
:1034C0003DB93379072B0DD001273846F8BD013DB2
:1034D000F7D021463046FFF7ABFF04F50074002813
:1034E000F5D0F1E7F36A064A1868022100F020F9E6
:1034F000F36A186800F0C4F805233371E5E700BFEC
:10350000C48D03080000000000000000000000005F
:103510000379072B01D001207047C36A074A10B511
:1035200004460221186800F003F9E36A186800F005
:10353000A7F805232371002010BD00BFC48D030828
:10354000034B00F00F0003EB0010C0E902127047BC
:103550008034002000000000000000000000000097
:1035600002F0DEBA000000000000000000000000D1
:103570000023012202704360C3600374704700BFE0
:1035800038B504460D46202383F31188FEF730FB3F
:103590006B682046C4E9015302F0E2FA00250223D9
:1035A0002370E560FEF734FB85F3118838BD00BF5A
:1035B00010B52023044683F31188FEF719FB20463B
:1035C00002F076FBFEF724FB002383F3118810BD85
:1035D00001F046BE000000000000000000000000F6
:1035E000012200230270C0E901330C30FEF7B0BFA6
:1035F00038B504460D46202383F31188FEF7F8FA08
:103600002046656001F064FE02232370FEF700FB94
:10361000002383F3118838BD000000000000000083
:1036200038B50446202383F31188FEF7E1FA2046DB
:1036300001F0CEFE0025012323706560FEF7E8FA55
:1036400085F3118838BD00BF0000000000000000B5
:1036500010B52023044683F31188FEF7C9FA626887
:10366000D2E9022101238B409BB25383FEF7D0FAAB
:10367000002383F3118810BD00000000000000004B
:1036800010B52023044683F31188FEF7B1FA62686F
:10369000D2E9022101238B409BB21383FEF7B8FAD3
:1036A000002383F3118810BD00000000000000001B
:1036B00038B504460D46202383F31188FEF798FAA7
:1036C000032323702946204601F0BAFE4FF0FF3154
:1036D00004F10800FEF774FEFEF79AFA002383F364
:1036E000118838BD0000000000000000000000004C
:1036F000F8B51F4604460D461646202383F311886D
:10370000FEF776FA03203B463246294620702046D3
:1037100001F0B6FE4FF0FF3104F10800FEF750FE55
:10372000FEF776FA002383F31188F8BD000000004D
:1037300070B5202304460D46164683F31188FEF724
:1037400057FA0323237032462946204601F0B8FE7B
:103750004FF0FF3104F10800FEF732FEFEF758FA91
:10376000002383F3118870BD0000000000000000FA
:1037700070B5202304460D46164683F31188FEF7E4
:1037800037FA0323237032462946204601F0B8FE5B
:103790004FF0FF3104F10800FEF712FEFEF738FA91
:1037A000002383F3118870BD0000000000000000BA
:1037B00001F0DEBE0000000000000000000000007C
:1037C00002F02EBC0000000000000000000000001D
:1037D0000023012202704370837043600372C0E9CA
:1037E00003337047000000000000000000000000EC
:1037F00038B504460D46202383F31188FEF7F8F907
:103800002046656002F024FC02232370FEF700FAD4
:10381000002383F3118838BD000000000000000081
:1038200038B50446202383F31188FEF7E1F92046DA
:1038300002F0B6FC00250123237065606570A57059
:10384000FEF7E6F985F3118838BD00BF00000000DF
:1038500070B5202304460D46164683F31188FEF703
:10386000C7F932462946204602F0F2FC0123A37034
:10387000FEF7CEF9002383F3118870BD000000002D
:103880002DE9F0411F4604460E469046202383F35F
:1038900011880125FEF7ACF94246257231682046B1
:1038A00002F0A6FC6570394604F11000FEF788FDB1
:1038B000054638B9FEF7ACF9002383F31188284692
:1038C000BDE8F081FEF71CFA6378012B05D04FF0BC
:1038D000FF3033681B1A3360ECE7204602F0A8FC87
:1038E00000236370F5E700BF000000000000000047
:1038F000430910B49B0000F1604404F5614403F1F6
:103900006043090103F5614300F01F000122C9B2C1
:1039100084F8001302FA00F0C3F880015DF8044B4C
:103920001860704700000000000000000000000068
:103930000849430910B4203300F01F040122084451
:10394000A240002441F8232080F800435DF8044B96
:10395000704700BF00E100E0000000000000000030
:1039600000F1604000F56D400901C9B20176704771
:1039700008B5FEF795F9104A516913680B4003F03A
:103980000103536193B10D4A93680BB1D068984716
:10399000202383F31188FEF753F900210748FEF72F
:1039A0006FFDFEF765F9002383F31188FEF790F9A8
:1039B000BDE80840FEF73CBF003C014080340020D9
:1039C00008B5FEF76DF9104A516913680B4003F012
:1039D0000203536193B10D4A93690BB1D0699847C3
:1039E000202383F31188FEF72BF900210848FEF706
:1039F00047FDFEF73DF9002383F31188FEF768F9D0
:103A0000BDE80840FEF714BF003C014080340020B0
:103A100090340020000000000000000000000000C2
:103A200008B5FEF73DF9104A516913680B4003F0E1
:103A30000403536193B10D4A936A0BB1D06A98475E
:103A4000202383F31188FEF7FBF800210848FEF7D6
:103A500017FDFEF70DF9002383F31188FEF738F9FF
:103A6000BDE80840FEF7E4BE003C01408034002081
:103A7000A034002000000000000000000000000052
:103A800008B5FEF70DF9104A516913680B4003F0B1
:103A90000803536193B10D4A936B0BB1D06B9847F8
:103AA000202383F31188FEF7CBF800210848FEF7A6
:103AB000E7FCFEF7DDF8002383F31188FEF708F931
:103AC000BDE80840FEF7B4BE003C01408034002051
:103AD000B0340020000000000000000000000000E2
:103AE00008B5FEF7DDF8104A516913680B4003F082
:103AF0001003536193B10D4A936C0BB1D06C98478E
:103B0000202383F31188FEF79BF800210848FEF775
:103B1000B7FCFEF7ADF8002383F31188FEF7D8F861
:103B2000BDE80840FEF784BE003C01408034002020
:103B3000C034002000000000000000000000000071
:103B400010B5FEF7ADF83D4B5A691C68144004F4FB
:103B500078725A61A30612D5394A936D0BB1D06DB4
:103B60009847202383F31188FEF76AF8002135482F
:103B7000FEF786FCFEF77CF8002383F311886006CD
:103B800012D52F4A936E0BB1D06E9847202383F342
:103B90001188FEF755F800212B48FEF771FCFEF75F
:103BA00067F8002383F31188210612D5244A936F06
:103BB0000BB1D06F9847202383F31188FEF740F8AC
:103BC00000212248FEF75CFCFEF752F8002383F345
:103BD0001188E20514D51A4AD2F8883013B1D2F808
:103BE0008C009847202383F31188FEF729F80021E1
:103BF0001748FEF745FCFEF73BF8002383F31188D6
:103C0000A30514D50E4AD2F8983013B1D2F89C000F
:103C10009847202383F31188FEF712F800210D48FE
:103C2000FEF72EFCFEF724F8002383F31188FEF73D
:103C30004FF8BDE81040FEF7FBBD00BF003C01405F
:103C400080340020D0340020E0340020F034002004
:103C500000350020103500200000000000000000AA
:103C600010B5FEF71DF84B4B5A691C68144004F45C
:103C70007C425A61620514D5474AD2F8A83013B184
:103C8000D2F8AC009847202383F31188FDF7D8FFC2
:103C900000214248FEF7F4FBFDF7EAFF002383F31F
:103CA0001188230514D53C4AD2F8B83013B1D2F8A4
:103CB000BC009847202383F31188FDF7C1FF002142
:103CC0003748FEF7DDFBFDF7D3FF002383F31188B0
:103CD000E00414D5304AD2F8C83013B1D2F8CC0081
:103CE0009847202383F31188FDF7AAFF00212D4870
:103CF000FEF7C6FBFDF7BCFF002383F31188A10488
:103D000014D5254AD2F8D83013B1D2F8DC00984740
:103D1000202383F31188FDF793FF00212248FEF74B
:103D2000AFFBFDF7A5FF002383F31188620414D5D0
:103D3000194AD2F8E83013B1D2F8EC0098472023A2
:103D400083F31188FDF77CFF00211848FEF798FBEC
:103D5000FDF78EFF002383F31188230414D50E4A48
:103D6000D2F8F83013B1D2F8FC009847202383F33F
:103D70001188FDF765FF00210D48FEF781FBFDF777
:103D800077FF002383F31188FDF7A2FFBDE8104001
:103D9000FEF74EBD003C014080340020203500205D
:103DA000303500204035002050350020603500209F
:103DB000703500200000000000000000000000003E
:103DC000062108B50846FFF793FD06210720FFF7F7
:103DD0008FFD06210820FFF78BFD06210920FFF744
:103DE00087FD06210A20FFF783FD06211720FFF734
:103DF0007FFD06212820BDE80840FFF779BD00BF00
:103E0000224B23481A696FEAC2526FEAD25210B5A8
:103E10001A611A69C2F308021A614FF0FF341A6975
:103E20005A695C6100215A6959615A691A6A62F0DB
:103E300080521A621A6A02F080521A621A6A5A6A28
:103E40005C625A6A59625A6A1A6C42F080521A6469
:103E50001A6E42F080521A661A6E026842F480723C
:103E600002601A6F02F44072B2F5407F03D04FF443
:103E700080321A671967064A536823F40073536047
:103E800001F016F8BDE81040FFF79ABF0038024075
:103E90000070004000000000000000000000000072
:103EA000314B324A4FF080504FF44041186411605A
:103EB0001A6842F001021A601A689207FCD59968E4
:103EC000294A21F003019960936813F00C03FBD198
:103ED0001068254900F0F90010609360136843F4FE
:103EE000803313600B689803FCD54B6F1E4A43F078
:103EF00001034B67536F9907FCD51D4B5360136843
:103F00001A4943F0807313604B685A04FCD5164A73
:103F100013689B01FCD5174B174991601A68174B22
:103F20009A4217D0164B40F205721A600E4A9368F7
:103F300043F002039360936803F00C03082BFAD15B
:103F4000536C43F480435364536E43F4804353668D
:103F5000536E70470B4A0C4B12689A42E2D1084BE1
:103F600040F205121A60E1E700380240007000409C
:103F700008544007002004E00094883811640020B1
:103F8000003C024000ED00E041C20F410000000093
:103F900070B50D4E0D4C0E4D3046FEF779FD0D4BB4
:103FA0000D4AB2622046C6E90B53FEF771FD183D7B
:103FB0000A4A0B4BE562A262236306211220BDE888
:103FC0007040FFF795BC00BF3433002068330020F9
:103FD000608E0308162C02000020014000210140E1
:103FE000162C02020000000000000000000000008B
:103FF0000378012B00D070471F4B984210B5044640
:1040000010D01E4B984222D01D48A26A436803F488
:104010004003002143F480330124436051609160E8
:10402000946010BD0346174AC06A062100F070FF75
:10403000E36A15491A68154B91605A6C42F4807214
:104040005A645A6E42F480725A665B6EDCE703462D
:104050000C4AC06A062100F05BFFE36A0C491A684B
:104060000A4B91605A6C42F400725A645A6E42F4E0
:1040700000725A665B6EC7E7343300206833002055
:1040800000230140514300084C2001400038024009
:104090004C21014000000000000000000000000072
:1040A0000369C2681978F0B4066B29B1012A94BF7C
:1040B00046F4807646F48476C16A5D880C6881682F
:1040C000E16002FB05F26260D968266027681E6A1B
:1040D000826A1869013D47F00107276046EA0555E5
:1040E0005C69002616609E69D4609C8B1661DE8B2D
:1040F0005462D3E9094341F08061966241F48071D2
:10410000D562146353634300516006D440F4407099
:1041100040F001009060F0BC704720F0804340F216
:10412000033123F002030B4308439360F0BC90601B
:10413000704700BF00000000000000000000000009
:1041400030B4C46A2268136823F01F031360136835
:1041500013F00103FBD1257A826A60683D21A940F2
:10416000016053609368012123F08043936030BC69
:104170009160704700000000000000000000000097
:1041800038B5FDF78DFD6B4A146800211160A20659
:1041900000F18E8004F001042CB3674D2B6913B33A
:1041A0002846FFF7CDFF2B699B68002B00F0B580F8
:1041B00005222A700221284698472B78052B04BF38
:1041C00002232B7000232B61202383F31188FDF73A
:1041D00037FD4FF0FF315948FEF702F9FDF748FD72
:1041E000002383F31188564A15680021AB0611603D
:1041F0002ED405F001052DB3524C236913B320468C
:10420000FFF79EFF23699B68002B00F08280052248
:1042100022700221204698472378052B04BF0223F1
:10422000237000232361202383F31188FDF708FD09
:104230004FF0FF314448FEF7D3F8FDF719FD002396
:1042400083F31188FDF744FDBDE83840FEF7F0BA6E
:104250003C4CE26A1268526805F00105002ACAD097
:104260002369002BEED02046FFF76AFF23699B6885
:10427000002B5AD00522227001212046984723782E
:10428000052B04BF0223237000232361202383F323
:104290001188FDF7D5FC4FF0FF312B48FEF7A0F851
:1042A000FDF7E6FC002383F31188002DA4D1C9E7B4
:1042B000214DEA6A1268526804F00104002A3FF4B2
:1042C0006BAF2B69002B8ED02846FFF739FF2B6987
:1042D0009B6833B305222A700121284698472B7822
:1042E000052B04BF02232B7000232B61202383F3B3
:1042F0001188FDF7A5FC4FF0FF311048FEF770F86C
:10430000FDF7B6FC002383F31188002C3FF46BAF5C
:1043100043E702222361227085E702222B612A7083
:1043200052E702222B612A70E0E702222361227009
:10433000ACE700BF002001403433002048330020A8
:1043400000210140683300207C3300200000000081
:1043500011F00C0F70B5044616D10369002B35D04F
:104360008D0634D51A78002A3CD05D6875B3D0E943
:104370000212012A59D95B885208540004FB031128
:104380002B46BDE870401847FFF7DAFE23699B68AB
:10439000002B4ED00522227000212046984723781A
:1043A000052B04BF0223237000232361202383F302
:1043B0001188FDF745FC04F114004FF0FF31FEF7C2
:1043C0000FF8FDF755FC002383F3118870BDCA0672
:1043D000FCD55B68002BF9D0D0E90212BDE8704033
:1043E00052081847FFF7ACFE23695B68C3B104228B
:1043F00022702046D4E9021298472378042B0FD06C
:10440000202383F31188FDF71BFC04F11400002125
:10441000FDF7E6FFFDF72CFC002383F3118870BD48
:104420000222002322702361EAE72B46BDE8704098
:104430001847022223612270B8E700BF0000000085
:10444000024A536843F4000353607047002301405D
:10445000C26A38B59368936013F00104054605D02D
:1044600013F00C0F14BF4FF480340124D90506D586
:1044700013F4406F14BF44F4003444F00204DA0330
:1044800006D513F4402F14BF44F4802444F00404F0
:10449000202383F31188FDF7D3FB05F108000021E9
:1044A000FDF7EEFF214605F11C00FEF741F9FDF78F
:1044B000DFFB002383F3118838BD00BF000000003C
:1044C00038B5C36ADD68AA07044615D1EB0600D4E7
:1044D00038BDE36A1025DD60202383F31188FDF7E2
:1044E000AFFB294604F12000FEF722F9FDF7C0FBDF
:1044F000002383F3118838BD5A6922F002025A6101
:10450000202383F31188FDF79BFB04F110000021A9
:10451000FDF7B6FF04F118000121FEF709F9FDF7D8
:10452000A7FB002383F31188D0E700BF0000000041
:1045300038B5C36A1D69AA07044615D1EB0600D435
:1045400038BDE36A10251D61202383F31188FDF730
:1045500077FB294604F12000FEF7EAF8FDF788FB17
:10456000002383F3118838BD5A6922F010025A6182
:10457000202383F31188FDF763FB04F11000002171
:10458000FDF77EFF04F118000221FEF7D1F8FDF7D8
:104590006FFB002383F31188D0E700BF0000000009
:1045A000C36A70B55C685C602207054614D4630773
:1045B00000D470BDEA6A2023946983F31188FDF763
:1045C0003FFB210405F12000FEF7B2F8FDF750FB98
:1045D000002383F3118870BD1A68064622F0020298
:1045E000032106F8281B20211A6081F31188FDF7AA
:1045F00027FB30460021FEF79BF8FDF739FB00232F
:1046000083F31188D3E700BF000000000000000022
:10461000F0B44B4D4B4B2E6CDB6A4B4F46F00076A3
:104620002E642E6E46F000762E662C6ED3F8005265
:104630003D4045F00105C3F80052D3F800423C402C
:1046400044F0010444EA0024C3F80042002947D0A2
:104650000024C3F81C422046C3F804422546C3F890
:104660000C42C3F8144203EBC00401301C28C4F808
:104670004052C4F84452F6D100260127947810889D
:1046800014F0010F03EBC00506F1010607FA00F074
:1046900005D0D3F804C240EA0C0CC3F804C214F0ED
:1046A000020F05D0D3F80CC240EA0C0CC3F80CC2C0
:1046B000640704D5D3F814420443C3F81442546881
:1046C000C5F840429468C5F84442D3F81C42B14250
:1046D00040EA040002F10C02C3F81C02CED11DE036
:1046E00003EBC0040122C3F84012C3F84412C4F81B
:1046F0004012C4F84412C3F80412C3F81412C3F8E9
:104700000C22C3F81C22D3F80C1282401143C3F8C8
:104710000C12D3F81C020243C3F81C22D3F8001277
:10472000074A21F00101C3F80012136C23F0007353
:104730001364136E23F000731366136EF0BC70479E
:10474000003802409C3300200000FFFF0000000002
:1047500008B5FDF7A5FA0448FFF77AFEFDF7B8FAA9
:10476000BDE80840FEF764B89C330020000000005C
:1047700008B5FDF795FA0448FFF7A2FEFDF7A8FA81
:10478000BDE80840FEF754B89C330020000000004C
:1047900008B5FDF785FA0448FFF7CAFEFDF798FA59
:1047A000BDE80840FEF744B89C330020000000003C
:1047B00008B5FDF775FA0448FFF7F2FEFDF788FA31
:1047C000BDE80840FEF734B89C330020000000002C
:1047D00008B5FDF765FA0448FFF73AFEFDF778FAE9
:1047E000BDE80840FEF724B8CC33002000000000EC
:1047F00008B5FDF755FA0448FFF762FEFDF768FAC1
:10480000BDE80840FEF714B8CC33002000000000DB
:1048100008B5FDF745FA0448FFF78AFEFDF758FA98
:10482000BDE80840FEF704B8CC33002000000000CB
:1048300008B5FDF735FA0448FFF7B2FEFDF748FA70
:10484000BDE80840FDF7F4BFCC33002000000000B5
:1048500038B5194D194C2846FEF762F9184BEB6232
:104860000B211320FFF744F80B211420FFF740F829
:104870000B211520FFF73CF80B211620FFF738F825
:104880002046FEF74DF90F4BE3620B213F20FFF767
:104890002FF80B214020FFF72BF80B214120FFF7C9
:1048A00027F80B214220FFF723F8002211460E20A3
:1048B000BDE83840FFF7ACBE9C330020CC3300206D
:1048C000006400400068004000000000000000009C
:1048D000194B984210B5044623D0184B984215D076
:1048E000E36A01221A605A68D10707D4012108201F
:1048F000FDF7EEFAE36A5A68D207F7D56268104905
:10490000D2E90020D8611A60596110BD0D4B1A6CB4
:1049100042F080621A641A6E42F080621A661B6E60
:10492000DEE7084B1A6C42F000721A641A6E42F00D
:1049300000721A661B6ED3E79C330020CC33002034
:104940005B8701000038024000000000000000000A
:1049500003291AD8DFE801F0110C0702C36A98682E
:10496000C0F300707047C36A9868C0F3C0607047B6
:10497000C36A9868C0F380607047C36A9B6813F08D
:10498000E05F14BF0120002070470020704700BF87
:10499000032934D8DFE801F0232B1F02C16A01F597
:1049A000D071107810B4C0F3001384064FEA4303AB
:1049B00021D5546843EAC40343F00403D2E9024218
:1049C00000F00F0043F0010348608C60CA605DF89E
:1049D000044B0B607047C16A01F5C871E1E7C16A19
:1049E0008B68C3F30163183301EB0311D9E7C16A84
:1049F00001F5C071D5E7948843EA4453DEE7704778
:104A0000012911D00AD3022906D1C36A186910F00E
:104A1000030018BF0120704700207047C36ADA689E
:104A20009207F3D001207047C36AD86810F00300E2
:104A300018BF0120704700BF000000000000000008
:104A400030B400292FD1C36AD968880744D0D3F87D
:104A5000B001D3F8B411D3F8B841D3F8BC51146104
:104A600020245561DC60DC68A50703D15C6944F053
:104A700002045C611379440864F30413840864F34A
:104A8000451313719B062BD59368C00860F31C0374
:104A900093601379080A61F30303090C1371107012
:104AA000518030BC7047012920D00229F9D1C36A56
:104AB000D3F8C001D3F8C411D3F8C841D3F8CC510E
:104AC0001461202455611C611C69A407D2D15C6962
:104AD00044F010045C61CDE719698907E8D1E0E78B
:104AE0001389400D60F30A031381D2E7C36AAEE76E
:104AF00008B5FDF7D5F8084B084A196801F03D01E3
:104B0000996013680BB150689847FDF7E1F8BDE86C
:104B10000840FDF78DBE00BF00600240FC3300205E
:104B200010B5FDF7BDF8094B094819688268890975
:104B300001F03D018C019C600AB1C0689047FDF70F
:104B4000C7F8BDE81040FDF773BE00BF006002402B
:104B5000FC33002000000000000000000000000006
:104B600010B5FDF79DF8094B094819680269090C51
:104B700001F03D010C049C600AB140699047FDF7CB
:104B8000A7F8BDE81040FDF753BE00BF006002402B
:104B9000FC330020000000000000000000000000C6
:104BA00010B5FDF77DF8094B094819688269890D30
:104BB00001F03D018C059C600AB1C0699047FDF78A
:104BC00087F8BDE81040FDF733BE00BF006002402B
:104BD000FC33002000000000000000000000000086
:104BE00008B5FDF75DF8084B08485968026A01F0FE
:104BF0003D01D9600AB1406A9047FDF769F8BDE808
:104C00000840FDF715BE00BF00600240FC330020E5
:104C100010B5FDF745F8094B09485968826A8909BA
:104C200001F03D018C01DC600AB1C06A9047FDF7DC
:104C30004FF8BDE81040FDF7FBBD00BF006002402B
:104C4000FC33002000000000000000000000000015
:104C500010B5FDF725F8094B09485968026B090C96
:104C600001F03D010C04DC600AB1406B9047FDF798
:104C70002FF8BDE81040FDF7DBBD00BF006002402B
:104C8000FC330020000000000000000000000000D5
:104C900010B5FDF705F8094B09485968826B890D75
:104CA00001F03D018C05DC600AB1C06B9047FDF757
:104CB0000FF8BDE81040FDF7BBBD00BF006002402B
:104CC000FC33002000000000000000000000000095
:104CD00008B5FCF7E5FF084B08481968026C01F0BD
:104CE0003D0199600AB1406C9047FCF7F1FFBDE8C7
:104CF0000840FDF79DBD00BF00640240FC3300206A
:104D000010B5FCF7CDFF094B09481968826C890979
:104D100001F03D018C019C600AB1C06C9047FCF72A
:104D2000D7FFBDE81040FDF783BD00BF006402401F
:104D3000FC33002000000000000000000000000024
:104D400010B5FCF7ADFF094B09481968026D090C55
:104D500001F03D010C049C600AB1406D9047FCF7E6
:104D6000B7FFBDE81040FDF763BD00BF006402401F
:104D7000FC330020000000000000000000000000E4
:104D800010B5FCF78DFF094B09481968826D890D34
:104D900001F03D018C059C600AB1C06D9047FCF7A5
:104DA00097FFBDE81040FDF743BD00BF006402401F
:104DB000FC330020000000000000000000000000A4
:104DC00008B5FCF76DFF084B08485968026E01F002
:104DD0003D01D9600AB1406E9047FCF779FFBDE80C
:104DE0000840FDF725BD00BF00640240FC330020F1
:104DF00010B5FCF755FF094B09485968826E8909BF
:104E000001F03D018C01DC600AB1C06E9047FCF7F7
:104E10005FFFBDE81040FDF70BBD00BF006402401E
:104E2000FC33002000000000000000000000000033
:104E300010B5FCF735FF094B09485968026F090C9A
:104E400001F03D010C04DC600AB1406F9047FCF7B3
:104E50003FFFBDE81040FDF7EBBC00BF006402401F
:104E6000FC330020000000000000000000000000F3
:104E700010B5FCF715FF094B09485968826F890D79
:104E800001F03D018C05DC600AB1C06F9047FCF772
:104E90001FFFBDE81040FDF7CBBC00BF006402401F
:104EA000FC330020000000000000000000000000B3
:104EB0000E490F4A0F48002310B40B600E4C1946E0
:104EC00001E052F80C0C016044F833100133102B50
:104ED00002F10C02F5D10949094A5DF8044B4FF083
:104EE000FF338B60CB609360D36070477C340020CD
:104EF000DC8D030810600240FC330020006002409B
:104F000000640240000000000000000000000000FB
:104F1000F8B5DFF898C0477ADCF80050012404FAAD
:104F200007F62E423CD11F4C354304EBC70615F063
:104F3000FF0FCCF8005044F83720736009D01A4BAB
:104F40001C6B44F400141C631C6D44F400141C65B9
:104F50001B6D15F47F4F16D105682B6823F01F03D6
:104F60002B602C6814F00104FBD1077A46683D23BE
:104F7000BB40212733602C606F617AB1807AFEF7E5
:104F8000B7FC2046F8BD084B1C6B44F480041C633E
:104F90001C6D44F480041C651B6DDDE71046F8BDF4
:104FA0002046F8BDFC330020003802407C3400204D
:104FB00010B50446807AFEF7BBFC1149607A0B6895
:104FC0000122824023EA020313F0FF0F0B6009D194
:104FD0000C4A116B21F400111163116D21F40011C1
:104FE0001165126D13F47F4F09D1064B1A6B22F431
:104FF00080021A631A6D22F480021A651B6D10BDBF
:105000007C34002000380240000000000000000056
:10501000054B002203F58071C3E90033C3E9022286
:1050200010338B42F8D1704780340020000000001C
:105030002DE9F04F02F00309C2F3800EC2F3C10C58
:10504000C2F34117C846C2F3C31200264FF0010A4B
:1050500016E0D0F800B003EA0B0343EA0803072E7A
:10506000036044D8036A1D402C43046249083CD0C5
:105070004FEA4E0E4FEA8C0CBF004FEA880801360B
:10508000CB07F3D543680AFA06F423EA040343EA9C
:105090000E03436003257300846805FA03F3DB43C2
:1050A0001C4044EA0C048460C56806F00704A400B0
:1050B0001D404FF00F0B3D430BFA04FBB9F1020FFB
:1050C000C56002FA04F46FEA0B05C2D1072E13D8AB
:1050D000D0F820B00BEA05052C4304620468234095
:1050E00043EA080349080360C2D1BDE8F08F436A70
:1050F0001D402C434462B9E7D0F824B00BEA050503
:105100002C434462EAE700BF0000000000000000FA
:1051100021F0030303F1804303F59C3370B401F0E5
:1051200003049D68A4000F26A640C0F3832025EA4F
:105130000605A040012404FA01F128430D4C9860B3
:10514000A368D5076FEA01004CBF0B43034012F080
:10515000020F084AA360D36814BF0B430340D36017
:10516000044B1A68114319605A6802405A6070BCB7
:10517000704700BF003C014000000000000000003C
:1051800011F00C0F00D170470148FCF7D9BC00BFEB
:10519000948E0308000000000000000000000000E2
:1051A00011F00C0F70B50E4604464CD163681A78A6
:1051B0005D6842B1F0063AD5002D37D020462B4627
:1051C000BDE870401847606A0268136823F01F0347
:1051D00013601368D907FCD4027A216A40683D2322
:1051E00093400A680360136823F01F031360136879
:1051F000DB07FCD4087A4A683D238340136035B34B
:10520000042323702046A8472378042B1FD0202393
:1052100083F31188FCF714FD04F108000021FDF769
:10522000DFF8FCF725FD002383F3118870BD002D06
:10523000FCD0042323702046A8472378042BF5D103
:105240000323237070BD0348FCF77AFCAEE702230A
:105250002370DCE7948E03080000000000000000CB
:1052600070B50F4E0F4D104C3046FEF7B9F90F4A8E
:105270000F4B1049F161204605F12401C6E90851A0
:10528000C6E90A23FEF7ACF90B490C4A0C4BE16165
:10529000A5F160010C3DC4E90815C4E90A2370BDFD
:1052A00080350020308E0308B0350020160001063E
:1052B0004600010600300140003C0040160001009D
:1052C0004600010000000000000000000000000097
:1052D0000378012B70B504462FD0C1696568A26AB6
:1052E000288AE36A060522F4F04223F4F0432E787C
:1052F00044BF42F4205243F42053C4E90A23AEB918
:1053000022F4847223F48473C4E90A230A686B8A42
:1053100040F4417043F0070322F040020A60086045
:105320004B600B6843F040030B6070BD42F4847225
:1053300043F48473C4E90A23E8E71F4B98420CD076
:105340001E4B984220D0D4E90823E16910681A68FE
:1053500001F10C0383609360C0E70346184A006ABA
:105360000A21FFF7D5FD2346164A606A0A21FFF796
:10537000CFFD154B5A6C42F480525A645A6E42F477
:1053800080525A665B6EDEE703460D4A006A0A21C8
:10539000FFF7BEFD23460B4A606A0A21FFF7B8FDFE
:1053A000094B1A6C42F400421A641A6E42F400422D
:1053B0001A661B6EC7E700BF80350020B03500209D
:1053C000A15100088151000800380240000000008F
:1053D0000378022B00D0704710B50446D0E907309F
:1053E0001A68002122F040021A6019605960FFF724
:1053F000DFFD606AFFF7DCFD0D4B9C420DD00D4BCD
:105400009C4209D10C4B1A6C22F400421A641A6EA9
:1054100022F400421A661B6E10BD074B5A6C22F430
:1054200080525A645A6E22F480525A665B6E10BDE6
:1054300080350020B0350020003802400000000018
:10544000D0E9082330B412681B680A4CD0E90A502E
:10545000D460094C51601560DC60596018601168B7
:1054600041F0010111601A6842F001021A6030BC7B
:10547000704700BFE0350020908E03080000000058
:1054800070B4D0E90854D0E90A602D682468EB6054
:1054900046F4806640F4806069602E60E26061607E
:1054A00020602B6843F001032B60236843F0010365
:1054B000236070BC704700BF0000000000000000C7
:1054C00070B4D0E90843C56A24681B68806A094E35
:1054D000E66045F4806561602060DA6059601D60B7
:1054E000226842F0010222601A6842F001021A604A
:1054F00070BC7047E0350020000000000000000094
:1055000030B4D0E90843856A24681B68C06AE26049
:1055100045F48065074A61602560DA60596018606B
:10552000226842F0010222601A6842F001021A6009
:1055300030BC7047908E030800000000000000009F
:1055400008B5FCF7ADFB202383F31188FCF778FB4B
:10555000FCF706FBFCF78CFB002383F31188FCF7B8
:10556000B7FBBDE80840FDF763B900BF00000000CD
:10557000054B064A5A600021072299600B2008213A
:105580001A60FEF7EDB900BF10E000E03F900200A6
:1055900008B5FCF785FB0C4B1878DA680021042865
:1055A000116107D10220187011601161D16821F0DA
:1055B000FF01D1605B6804485B689847FCF788FB93
:1055C000BDE80840FDF734B9E435002000000000D4
:1055D0000248034BC360FDF753BB00BFE435002016
:1055E000000C00400000000000000000000000006F
:1055F00038B50378012B044612D0D4E90103C16801
:105600000568E268B3FBF5F3013B84689BB20020B8
:1056100021F0FF011060546093621061D16038BDC9
:105620000E4B9842E9D10E4B1A6C42F008021A64F4
:105630001A6E42F008021A661A6E1A6A42F00802DE
:105640001A621A6A22F008021A62042132201B6AC6
:10565000FEF74EF9034BA360CFE700BFE43500200F
:105660000038024000BD01050000000000000000FD
:105670004268C36850680139D9620022012159612A
:105680005A621A6110B1DA680A43DA6085221A6038
:10569000704700BF00000000000000000000000094
:1056A000C36800221A601A61DA6822F0FF02DA6029
:1056B000704700BF00000000000000000000000074
:1056C000F8B50D4F0D4E0E4D0E4C3846FDF720FB34
:1056D0000D4BFB603046FDF71BFB4FF08043284627
:1056E000F360FDF715FB094BEB602046FDF710FB5F
:1056F000074BE360F8BD00BFF43500200C360020F6
:10570000243600203C360020000001400004004008
:105710000040014000000000000000000000000008
:105720000378012B70B504463AD0C36800221A6092
:105730005A639A635A62D4E9011288690D7D20F098
:10574000FF0000261E61D8604868B2FBF0F24FF6F9
:10575000FF70013A9A620A78D8626DB940F201206E
:10576000542198619960C2B113221A6203F1380280
:105770003433C4E9042370BD4FF48170642198610F
:1057800099603AB131221A6203F134023833C4E924
:10579000042370BD13221A62F6E731221A62E5E78C
:1057A0003A4B984253D03A4B98423BD0394B9842AF
:1057B0001DD0394B984218D1384B5A6C42F4803284
:1057C0005A645A6E42F480325A665A6E5A6A42F4E9
:1057D00080325A625A6A22F480325A6203211820B7
:1057E0005B6AFEF785F82E4BA360E368A3E72B4BBB
:1057F0001A6C42F002021A641A6E42F002021A6631
:105800001A6E1A6A42F002021A621A6A22F0020240
:105810001A6203211D201B6AFEF76AF8214BA36060
:10582000E36888E71D4B1A6C42F001021A641A6E95
:1058300042F001021A661A6E1A6A42F001021A62F6
:105840001A6A22F001021A6203211C20E3E7134BBB
:105850005A6C42F001025A645A6E42F001025A66D2
:105860005A6E5A6A42F001025A625A6A22F00102E2
:105870005A62032119205B6AFEF73AF803211B20C4
:10588000FEF736F8064BA360AFE700BFF435002003
:105890000C360020243600203C3600200038024020
:1058A000007A030A00BD01050000000000000000AE
:1058B00008B50378022B00D008BD2649C368002232
:1058C00088421A60DA601A6132D0234B984221D0A4
:1058D000224B984210D0224B9842EDD11820FEF76F
:1058E00027F8204B5A6C22F480325A645A6E22F404
:1058F00080325A665B6E08BD1D20FEF719F8194B01
:105900001A6C22F002021A641A6E22F002021A665F
:105910001B6E08BD1C20FEF70BF8124B1A6C22F010
:1059200001021A641A6E22F001021A661B6E08BD8B
:105930001920FDF7FDFF1B20FDF7FAFF094B5A6CFC
:1059400022F001025A645A6E22F001025A665B6E1E
:1059500008BD00BFF43500200C360020243600209E
:105960003C3600200038024000000000000000002B
:10597000C3685A69002042F0010205215A6118618A
:1059800019607047000000000000000000000000E7
:10599000C36800221A60DA6822F0FF02DA607047FA
:1059A000C268D36810B413F0FF040CD141681461CD
:1059B0000C7D886854B970B143F00603096909B1D8
:1059C00043F00103D3605DF8044B70470028F3D126
:1059D00043F00403F2E743F00203EFE700000000A6
:1059E000C268D36823F0FF03D36070470000000053
:1059F000C36841681A69F0B5DD680E7D1540EAB2EA
:105A0000D2431A6183B0044605F0020305F004078F
:105A10007EB9002F2CD00278042A24D07BB9EB0762
:105A200005D5636820461B6998470323237003B09C
:105A3000F0BD53B10378042B04D0002FEFD0042322
:105A40002370ECE78B68E3B19847002FE7D0237809
:105A5000042BF4D16168CB68002BF0D02046984726
:105A600004232370DBE78A6842B101939047019BCE
:105A7000002BD4D02378042BE1D1EBE7002BCED040
:105A8000E9E7002FCBD0E6E70000000000000000AF
:105A900008B5FCF705F90448FFF7AAFFFCF718F969
:105AA000BDE80840FCF7C4BEF4350020000000004B
:105AB000FFF7EEBF00000000000000000000000043
:105AC00008B5FCF7EDF80448FFF792FFFCF700F982
:105AD000BDE80840FCF7ACBE0C360020000000001A
